{
  "contractName": "Citizen",
  "abi": [
    {
      "anonymous": false,
      "inputs": [
        {
          "indexed": false,
          "internalType": "uint256",
          "name": "id",
          "type": "uint256"
        }
      ],
      "name": "HoleDeleted",
      "type": "event"
    },
    {
      "anonymous": false,
      "inputs": [
        {
          "indexed": false,
          "internalType": "uint256",
          "name": "id",
          "type": "uint256"
        },
        {
          "indexed": false,
          "internalType": "string",
          "name": "location",
          "type": "string"
        },
        {
          "indexed": false,
          "internalType": "uint256",
          "name": "timestamp",
          "type": "uint256"
        },
        {
          "indexed": false,
          "internalType": "address",
          "name": "reporter",
          "type": "address"
        }
      ],
      "name": "HoleReported",
      "type": "event"
    },
    {
      "inputs": [
        {
          "internalType": "string",
          "name": "",
          "type": "string"
        }
      ],
      "name": "dailyReportCount",
      "outputs": [
        {
          "internalType": "uint256",
          "name": "",
          "type": "uint256"
        }
      ],
      "stateMutability": "view",
      "type": "function",
      "constant": true
    },
    {
      "inputs": [],
      "name": "reportCount",
      "outputs": [
        {
          "internalType": "uint256",
          "name": "",
          "type": "uint256"
        }
      ],
      "stateMutability": "view",
      "type": "function",
      "constant": true
    },
    {
      "inputs": [
        {
          "internalType": "uint256",
          "name": "",
          "type": "uint256"
        }
      ],
      "name": "reports",
      "outputs": [
        {
          "internalType": "uint256",
          "name": "id",
          "type": "uint256"
        },
        {
          "internalType": "string",
          "name": "location",
          "type": "string"
        },
        {
          "internalType": "uint256",
          "name": "timestamp",
          "type": "uint256"
        },
        {
          "internalType": "address",
          "name": "reporter",
          "type": "address"
        }
      ],
      "stateMutability": "view",
      "type": "function",
      "constant": true
    },
    {
      "inputs": [
        {
          "internalType": "address",
          "name": "",
          "type": "address"
        },
        {
          "internalType": "string",
          "name": "",
          "type": "string"
        }
      ],
      "name": "userReportTimestamps",
      "outputs": [
        {
          "internalType": "uint256",
          "name": "",
          "type": "uint256"
        }
      ],
      "stateMutability": "view",
      "type": "function",
      "constant": true
    },
    {
      "inputs": [
        {
          "internalType": "string",
          "name": "location",
          "type": "string"
        }
      ],
      "name": "reportHole",
      "outputs": [],
      "stateMutability": "nonpayable",
      "type": "function"
    },
    {
      "inputs": [],
      "name": "deleteOldReports",
      "outputs": [],
      "stateMutability": "nonpayable",
      "type": "function"
    }
  ],
  "bytecode": "0x608060405234801561001057600080fd5b50611011806100206000396000f3fe608060405234801561001057600080fd5b50600436106100625760003560e01c8063185c6f841461006757806334e91930146100855780633b5cd634146100a1578063ad623197146100d1578063c942adf714610101578063e9d3447914610134575b600080fd5b61006f61013e565b60405161007c9190610730565b60405180910390f35b61009f600480360381019061009a91906108a5565b610144565b005b6100bb60048036038101906100b6919061094c565b61046a565b6040516100c89190610730565b60405180910390f35b6100eb60048036038101906100e691906108a5565b6104a5565b6040516100f89190610730565b60405180910390f35b61011b600480360381019061011691906109d4565b6104d3565b60405161012b9493929190610a8f565b60405180910390f35b61013c6105ab565b005b60005481565b60004290506000600360003373ffffffffffffffffffffffffffffffffffffffff1673ffffffffffffffffffffffffffffffffffffffff168152602001908152602001600020836040516101989190610b17565b908152602001604051809103902054148061021b575062015180600360003373ffffffffffffffffffffffffffffffffffffffff1673ffffffffffffffffffffffffffffffffffffffff168152602001908152602001600020836040516101ff9190610b17565b908152602001604051809103902054826102199190610b5d565b115b61025a576040517f08c379a000000000000000000000000000000000000000000000000000000000815260040161025190610c03565b60405180910390fd5b600360028360405161026c9190610b17565b908152602001604051809103902054106102bb576040517f08c379a00000000000000000000000000000000000000000000000000000000081526004016102b290610c95565b60405180910390fd5b6000808154809291906102cd90610cb5565b9190505550604051806080016040528060005481526020018381526020014281526020013373ffffffffffffffffffffffffffffffffffffffff16815250600160008054815260200190815260200160002060008201518160000155602082015181600101908161033e9190610f09565b506040820151816002015560608201518160030160006101000a81548173ffffffffffffffffffffffffffffffffffffffff021916908373ffffffffffffffffffffffffffffffffffffffff1602179055509050506002826040516103a39190610b17565b908152602001604051809103902060008154809291906103c290610cb5565b919050555080600360003373ffffffffffffffffffffffffffffffffffffffff1673ffffffffffffffffffffffffffffffffffffffff168152602001908152602001600020836040516104159190610b17565b9081526020016040518091039020819055507fde97788b476ae2c298f3eafcdbbf25b0750a4da840dec090bc5a8c109904db2c60005483423360405161045e9493929190610a8f565b60405180910390a15050565b600360205281600052604060002081805160208101820180518482526020830160208501208183528095505050505050600091509150505481565b6002818051602081018201805184825260208301602085012081835280955050505050506000915090505481565b60016020528060005260406000206000915090508060000154908060010180546104fc90610d2c565b80601f016020809104026020016040519081016040528092919081815260200182805461052890610d2c565b80156105755780601f1061054a57610100808354040283529160200191610575565b820191906000526020600020905b81548152906001019060200180831161055857829003601f168201915b5050505050908060020154908060030160009054906101000a900473ffffffffffffffffffffffffffffffffffffffff16905084565b60004290506000600190505b60005481116106b657600060016000838152602001908152602001600020600201541180156106095750620151806001600083815260200190815260200160002060020154836106079190610b5d565b115b156106a3576001600082815260200190815260200160002060008082016000905560018201600061063a91906106ba565b60028201600090556003820160006101000a81549073ffffffffffffffffffffffffffffffffffffffff021916905550507f4b5c5bc36f64ba9158af1cb80bca08d8781d86e7b09364609896c9c448f7e3478160405161069a9190610730565b60405180910390a15b80806106ae90610cb5565b9150506105b7565b5050565b5080546106c690610d2c565b6000825580601f106106d857506106f7565b601f0160209004906000526020600020908101906106f691906106fa565b5b50565b5b808211156107135760008160009055506001016106fb565b5090565b6000819050919050565b61072a81610717565b82525050565b60006020820190506107456000830184610721565b92915050565b6000604051905090565b600080fd5b600080fd5b600080fd5b600080fd5b6000601f19601f8301169050919050565b7f4e487b7100000000000000000000000000000000000000000000000000000000600052604160045260246000fd5b6107b282610769565b810181811067ffffffffffffffff821117156107d1576107d061077a565b5b80604052505050565b60006107e461074b565b90506107f082826107a9565b919050565b600067ffffffffffffffff8211156108105761080f61077a565b5b61081982610769565b9050602081019050919050565b82818337600083830152505050565b6000610848610843846107f5565b6107da565b90508281526020810184848401111561086457610863610764565b5b61086f848285610826565b509392505050565b600082601f83011261088c5761088b61075f565b5b813561089c848260208601610835565b91505092915050565b6000602082840312156108bb576108ba610755565b5b600082013567ffffffffffffffff8111156108d9576108d861075a565b5b6108e584828501610877565b91505092915050565b600073ffffffffffffffffffffffffffffffffffffffff82169050919050565b6000610919826108ee565b9050919050565b6109298161090e565b811461093457600080fd5b50565b60008135905061094681610920565b92915050565b6000806040838503121561096357610962610755565b5b600061097185828601610937565b925050602083013567ffffffffffffffff8111156109925761099161075a565b5b61099e85828601610877565b9150509250929050565b6109b181610717565b81146109bc57600080fd5b50565b6000813590506109ce816109a8565b92915050565b6000602082840312156109ea576109e9610755565b5b60006109f8848285016109bf565b91505092915050565b600081519050919050565b600082825260208201905092915050565b60005b83811015610a3b578082015181840152602081019050610a20565b60008484015250505050565b6000610a5282610a01565b610a5c8185610a0c565b9350610a6c818560208601610a1d565b610a7581610769565b840191505092915050565b610a898161090e565b82525050565b6000608082019050610aa46000830187610721565b8181036020830152610ab68186610a47565b9050610ac56040830185610721565b610ad26060830184610a80565b95945050505050565b600081905092915050565b6000610af182610a01565b610afb8185610adb565b9350610b0b818560208601610a1d565b80840191505092915050565b6000610b238284610ae6565b915081905092915050565b7f4e487b7100000000000000000000000000000000000000000000000000000000600052601160045260246000fd5b6000610b6882610717565b9150610b7383610717565b9250828203905081811115610b8b57610b8a610b2e565b5b92915050565b7f596f75206861766520616c7265616479207265706f727465642074686973206c60008201527f6f636174696f6e20746f6461792e000000000000000000000000000000000000602082015250565b6000610bed602e83610a0c565b9150610bf882610b91565b604082019050919050565b60006020820190508181036000830152610c1c81610be0565b9050919050565b7f4461696c79207265706f7274206c696d6974207265616368656420666f72207460008201527f686973206c6f636174696f6e0000000000000000000000000000000000000000602082015250565b6000610c7f602c83610a0c565b9150610c8a82610c23565b604082019050919050565b60006020820190508181036000830152610cae81610c72565b9050919050565b6000610cc082610717565b91507fffffffffffffffffffffffffffffffffffffffffffffffffffffffffffffffff8203610cf257610cf1610b2e565b5b600182019050919050565b7f4e487b7100000000000000000000000000000000000000000000000000000000600052602260045260246000fd5b60006002820490506001821680610d4457607f821691505b602082108103610d5757610d56610cfd565b5b50919050565b60008190508160005260206000209050919050565b60006020601f8301049050919050565b600082821b905092915050565b600060088302610dbf7fffffffffffffffffffffffffffffffffffffffffffffffffffffffffffffffff82610d82565b610dc98683610d82565b95508019841693508086168417925050509392505050565b6000819050919050565b6000610e06610e01610dfc84610717565b610de1565b610717565b9050919050565b6000819050919050565b610e2083610deb565b610e34610e2c82610e0d565b848454610d8f565b825550505050565b600090565b610e49610e3c565b610e54818484610e17565b505050565b5b81811015610e7857610e6d600082610e41565b600181019050610e5a565b5050565b601f821115610ebd57610e8e81610d5d565b610e9784610d72565b81016020851015610ea6578190505b610eba610eb285610d72565b830182610e59565b50505b505050565b600082821c905092915050565b6000610ee060001984600802610ec2565b1980831691505092915050565b6000610ef98383610ecf565b9150826002028217905092915050565b610f1282610a01565b67ffffffffffffffff811115610f2b57610f2a61077a565b5b610f358254610d2c565b610f40828285610e7c565b600060209050601f831160018114610f735760008415610f61578287015190505b610f6b8582610eed565b865550610fd3565b601f198416610f8186610d5d565b60005b82811015610fa957848901518255600182019150602085019450602081019050610f84565b86831015610fc65784890151610fc2601f891682610ecf565b8355505b6001600288020188555050505b50505050505056fea26469706673582212206a53b18e284bcbadba5a7cac2e33f46e7c5cf0783ef3968223541b82f577f0dd64736f6c63430008130033",
  "immutableReferences": {},
  "source": "// SPDX-License-Identifier: MIT\r\npragma solidity ^0.8.19;\r\n\r\ncontract Citizen {\r\n    struct HoleReport {\r\n        uint256 id;\r\n        string location;\r\n        uint256 timestamp;\r\n        address reporter;\r\n    }\r\n\r\n    uint256 public reportCount; // Counter for reports\r\n    mapping(uint256 => HoleReport) public reports; // Mapping of report ID to HoleReport\r\n    mapping(string => uint256) public dailyReportCount; // Track daily reports per location\r\n    mapping(address => mapping(string => uint256)) public userReportTimestamps; // Track user's last report per location\r\n\r\n    event HoleReported(uint256 id, string location, uint256 timestamp, address reporter);\r\n    event HoleDeleted(uint256 id);\r\n\r\n    function reportHole(string memory location) public {\r\n        uint256 currentTime = block.timestamp;\r\n\r\n        // Check if the user has already reported this location within the last 24 hours\r\n        require(\r\n            userReportTimestamps[msg.sender][location] == 0 ||\r\n            (currentTime - userReportTimestamps[msg.sender][location]) > 1 days,\r\n            \"You have already reported this location today.\"\r\n        );\r\n\r\n        // Check if daily report limit (e.g., 3 reports per location) is exceeded\r\n        require(dailyReportCount[location] < 3, \"Daily report limit reached for this location\");\r\n\r\n        // Create a new report\r\n        reportCount++;\r\n        reports[reportCount] = HoleReport(reportCount, location, block.timestamp, msg.sender);\r\n\r\n        // Increment daily report count and update user's last report timestamp\r\n        dailyReportCount[location]++;\r\n        userReportTimestamps[msg.sender][location] = currentTime;\r\n\r\n        emit HoleReported(reportCount, location, block.timestamp, msg.sender);\r\n    }\r\n\r\n    function deleteOldReports() public {\r\n        uint256 currentTime = block.timestamp;\r\n\r\n        for (uint256 i = 1; i <= reportCount; i++) {\r\n            if (reports[i].timestamp > 0 && (currentTime - reports[i].timestamp) > 1 days) {\r\n                delete reports[i];\r\n                emit HoleDeleted(i);\r\n            }\r\n        }\r\n    }\r\n}\r\n",
  "sourcePath": "E:\\Bureau\\Blockchain\\Blockchain_project\\backend\\contracts\\citizen.sol",
  "compiler": {
    "name": "solc",
    "version": "0.8.19+commit.7dd6d404.Emscripten.clang"
  },
  "schemaVersion": "3.4.16",
  "updatedAt": "2024-12-08T13:54:51.231Z",
  "networkType": "ethereum",
  "devdoc": {
    "kind": "dev",
    "methods": {},
    "version": 1
  },
  "userdoc": {
    "kind": "user",
    "methods": {},
    "version": 1
  }
}