{
  "contractName": "Manager",
  "abi": [
    {
      "anonymous": false,
      "inputs": [
        {
          "indexed": false,
          "internalType": "uint256",
          "name": "id",
          "type": "uint256"
        },
        {
          "indexed": false,
          "internalType": "string",
          "name": "location",
          "type": "string"
        },
        {
          "indexed": false,
          "internalType": "address",
          "name": "reporter",
          "type": "address"
        }
      ],
      "name": "HoleReported",
      "type": "event"
    },
    {
      "inputs": [],
      "name": "reportCount",
      "outputs": [
        {
          "internalType": "uint256",
          "name": "",
          "type": "uint256"
        }
      ],
      "stateMutability": "view",
      "type": "function",
      "constant": true
    },
    {
      "inputs": [
        {
          "internalType": "uint256",
          "name": "",
          "type": "uint256"
        }
      ],
      "name": "reports",
      "outputs": [
        {
          "internalType": "uint256",
          "name": "id",
          "type": "uint256"
        },
        {
          "internalType": "string",
          "name": "location",
          "type": "string"
        },
        {
          "internalType": "address",
          "name": "reporter",
          "type": "address"
        }
      ],
      "stateMutability": "view",
      "type": "function",
      "constant": true
    },
    {
      "inputs": [
        {
          "internalType": "string",
          "name": "location",
          "type": "string"
        }
      ],
      "name": "reportHole",
      "outputs": [],
      "stateMutability": "nonpayable",
      "type": "function"
    },
    {
      "inputs": [
        {
          "internalType": "uint256",
          "name": "reportId",
          "type": "uint256"
        }
      ],
      "name": "getReport",
      "outputs": [
        {
          "components": [
            {
              "internalType": "uint256",
              "name": "id",
              "type": "uint256"
            },
            {
              "internalType": "string",
              "name": "location",
              "type": "string"
            },
            {
              "internalType": "address",
              "name": "reporter",
              "type": "address"
            }
          ],
          "internalType": "struct Manager.HoleReport",
          "name": "",
          "type": "tuple"
        }
      ],
      "stateMutability": "view",
      "type": "function",
      "constant": true
    }
  ],
  "bytecode": "0x608060405234801561001057600080fd5b50610c7b806100206000396000f3fe608060405234801561001057600080fd5b506004361061004c5760003560e01c8063185c6f841461005157806334e919301461006f5780634e7f9b191461008b578063c942adf7146100bb575b600080fd5b6100596100ed565b6040516100669190610495565b60405180910390f35b6100896004803603810190610084919061060a565b6100f3565b005b6100a560048036038101906100a0919061067f565b6101fb565b6040516100b291906107cb565b60405180910390f35b6100d560048036038101906100d0919061067f565b610373565b6040516100e493929190610846565b60405180910390f35b60005481565b600080815480929190610105906108b3565b9190505550604051806060016040528060005481526020018281526020013373ffffffffffffffffffffffffffffffffffffffff1681525060016000805481526020019081526020016000206000820151816000015560208201518160010190816101709190610b07565b5060408201518160020160006101000a81548173ffffffffffffffffffffffffffffffffffffffff021916908373ffffffffffffffffffffffffffffffffffffffff1602179055509050507fef68dfa45b32e7a9ba84a4219914430fdb97257b2ca6432f4b68500597c611d260005482336040516101f093929190610846565b60405180910390a150565b610203610445565b600060016000848152602001908152602001600020600001540361025c576040517f08c379a000000000000000000000000000000000000000000000000000000000815260040161025390610c25565b60405180910390fd5b60016000838152602001908152602001600020604051806060016040529081600082015481526020016001820180546102949061092a565b80601f01602080910402602001604051908101604052809291908181526020018280546102c09061092a565b801561030d5780601f106102e25761010080835404028352916020019161030d565b820191906000526020600020905b8154815290600101906020018083116102f057829003601f168201915b505050505081526020016002820160009054906101000a900473ffffffffffffffffffffffffffffffffffffffff1673ffffffffffffffffffffffffffffffffffffffff1673ffffffffffffffffffffffffffffffffffffffff16815250509050919050565b600160205280600052604060002060009150905080600001549080600101805461039c9061092a565b80601f01602080910402602001604051908101604052809291908181526020018280546103c89061092a565b80156104155780601f106103ea57610100808354040283529160200191610415565b820191906000526020600020905b8154815290600101906020018083116103f857829003601f168201915b5050505050908060020160009054906101000a900473ffffffffffffffffffffffffffffffffffffffff16905083565b60405180606001604052806000815260200160608152602001600073ffffffffffffffffffffffffffffffffffffffff1681525090565b6000819050919050565b61048f8161047c565b82525050565b60006020820190506104aa6000830184610486565b92915050565b6000604051905090565b600080fd5b600080fd5b600080fd5b600080fd5b6000601f19601f8301169050919050565b7f4e487b7100000000000000000000000000000000000000000000000000000000600052604160045260246000fd5b610517826104ce565b810181811067ffffffffffffffff82111715610536576105356104df565b5b80604052505050565b60006105496104b0565b9050610555828261050e565b919050565b600067ffffffffffffffff821115610575576105746104df565b5b61057e826104ce565b9050602081019050919050565b82818337600083830152505050565b60006105ad6105a88461055a565b61053f565b9050828152602081018484840111156105c9576105c86104c9565b5b6105d484828561058b565b509392505050565b600082601f8301126105f1576105f06104c4565b5b813561060184826020860161059a565b91505092915050565b6000602082840312156106205761061f6104ba565b5b600082013567ffffffffffffffff81111561063e5761063d6104bf565b5b61064a848285016105dc565b91505092915050565b61065c8161047c565b811461066757600080fd5b50565b60008135905061067981610653565b92915050565b600060208284031215610695576106946104ba565b5b60006106a38482850161066a565b91505092915050565b6106b58161047c565b82525050565b600081519050919050565b600082825260208201905092915050565b60005b838110156106f55780820151818401526020810190506106da565b60008484015250505050565b600061070c826106bb565b61071681856106c6565b93506107268185602086016106d7565b61072f816104ce565b840191505092915050565b600073ffffffffffffffffffffffffffffffffffffffff82169050919050565b60006107658261073a565b9050919050565b6107758161075a565b82525050565b600060608301600083015161079360008601826106ac565b50602083015184820360208601526107ab8282610701565b91505060408301516107c0604086018261076c565b508091505092915050565b600060208201905081810360008301526107e5818461077b565b905092915050565b600082825260208201905092915050565b6000610809826106bb565b61081381856107ed565b93506108238185602086016106d7565b61082c816104ce565b840191505092915050565b6108408161075a565b82525050565b600060608201905061085b6000830186610486565b818103602083015261086d81856107fe565b905061087c6040830184610837565b949350505050565b7f4e487b7100000000000000000000000000000000000000000000000000000000600052601160045260246000fd5b60006108be8261047c565b91507fffffffffffffffffffffffffffffffffffffffffffffffffffffffffffffffff82036108f0576108ef610884565b5b600182019050919050565b7f4e487b7100000000000000000000000000000000000000000000000000000000600052602260045260246000fd5b6000600282049050600182168061094257607f821691505b602082108103610955576109546108fb565b5b50919050565b60008190508160005260206000209050919050565b60006020601f8301049050919050565b600082821b905092915050565b6000600883026109bd7fffffffffffffffffffffffffffffffffffffffffffffffffffffffffffffffff82610980565b6109c78683610980565b95508019841693508086168417925050509392505050565b6000819050919050565b6000610a046109ff6109fa8461047c565b6109df565b61047c565b9050919050565b6000819050919050565b610a1e836109e9565b610a32610a2a82610a0b565b84845461098d565b825550505050565b600090565b610a47610a3a565b610a52818484610a15565b505050565b5b81811015610a7657610a6b600082610a3f565b600181019050610a58565b5050565b601f821115610abb57610a8c8161095b565b610a9584610970565b81016020851015610aa4578190505b610ab8610ab085610970565b830182610a57565b50505b505050565b600082821c905092915050565b6000610ade60001984600802610ac0565b1980831691505092915050565b6000610af78383610acd565b9150826002028217905092915050565b610b10826106bb565b67ffffffffffffffff811115610b2957610b286104df565b5b610b33825461092a565b610b3e828285610a7a565b600060209050601f831160018114610b715760008415610b5f578287015190505b610b698582610aeb565b865550610bd1565b601f198416610b7f8661095b565b60005b82811015610ba757848901518255600182019150602085019450602081019050610b82565b86831015610bc45784890151610bc0601f891682610acd565b8355505b6001600288020188555050505b505050505050565b7f5265706f727420646f6573206e6f742065786973740000000000000000000000600082015250565b6000610c0f6015836107ed565b9150610c1a82610bd9565b602082019050919050565b60006020820190508181036000830152610c3e81610c02565b905091905056fea26469706673582212201e8e2b3725be444813603b14d02aea8a46ad68ff8e258bcb376d0b60f89863b664736f6c63430008130033",
  "immutableReferences": {},
  "source": "// SPDX-License-Identifier: MIT\npragma solidity ^0.8.19;\n\ncontract Manager {\n    struct HoleReport {\n        uint256 id;\n        string location;\n        address reporter;\n    }\n\n    uint256 public reportCount; // Counter for reports\n    mapping(uint256 => HoleReport) public reports; // Mapping of report ID to HoleReport\n\n    event HoleReported(uint256 id, string location, address reporter);\n\n    // Citizens report holes\n    function reportHole(string memory location) public {\n        reportCount++;\n        reports[reportCount] = HoleReport(reportCount, location, msg.sender);\n\n        emit HoleReported(reportCount, location, msg.sender);\n    }\n\n    // Function to retrieve a report by ID\n    function getReport(uint256 reportId) public view returns (HoleReport memory) {\n        require(reports[reportId].id != 0, \"Report does not exist\");\n        return reports[reportId];\n    }\n}\n",
  "sourcePath": "/home/omar/FlutterProjects/Blockchain_project/backend/contracts/Manager.sol",
  "compiler": {
    "name": "solc",
    "version": "0.8.19+commit.7dd6d404.Emscripten.clang"
  },
  "schemaVersion": "3.4.16",
  "updatedAt": "2024-12-27T14:14:25.507Z",
  "networkType": "ethereum",
  "devdoc": {
    "kind": "dev",
    "methods": {},
    "version": 1
  },
  "userdoc": {
    "kind": "user",
    "methods": {},
    "version": 1
  }
}