{
  "contractName": "Manager",
  "abi": [
    {
      "inputs": [],
      "stateMutability": "nonpayable",
      "type": "constructor"
    },
    {
      "anonymous": false,
      "inputs": [
        {
          "indexed": false,
          "internalType": "uint256",
          "name": "id",
          "type": "uint256"
        },
        {
          "indexed": false,
          "internalType": "string",
          "name": "location",
          "type": "string"
        },
        {
          "indexed": false,
          "internalType": "uint256",
          "name": "timestamp",
          "type": "uint256"
        },
        {
          "indexed": false,
          "internalType": "address",
          "name": "reporter",
          "type": "address"
        }
      ],
      "name": "HoleReported",
      "type": "event"
    },
    {
      "anonymous": false,
      "inputs": [
        {
          "indexed": false,
          "internalType": "uint256",
          "name": "id",
          "type": "uint256"
        },
        {
          "indexed": false,
          "internalType": "enum Manager.HoleState",
          "name": "state",
          "type": "uint8"
        },
        {
          "indexed": false,
          "internalType": "uint256",
          "name": "timestamp",
          "type": "uint256"
        }
      ],
      "name": "HoleStateChanged",
      "type": "event"
    },
    {
      "anonymous": false,
      "inputs": [
        {
          "indexed": false,
          "internalType": "uint256",
          "name": "reportId",
          "type": "uint256"
        },
        {
          "indexed": false,
          "internalType": "uint256",
          "name": "actionTimestamp",
          "type": "uint256"
        },
        {
          "indexed": false,
          "internalType": "bool",
          "name": "isPunished",
          "type": "bool"
        }
      ],
      "name": "MunicipalityAction",
      "type": "event"
    },
    {
      "inputs": [
        {
          "internalType": "string",
          "name": "",
          "type": "string"
        }
      ],
      "name": "dailyReportCount",
      "outputs": [
        {
          "internalType": "uint256",
          "name": "",
          "type": "uint256"
        }
      ],
      "stateMutability": "view",
      "type": "function",
      "constant": true
    },
    {
      "inputs": [],
      "name": "ministry",
      "outputs": [
        {
          "internalType": "address",
          "name": "",
          "type": "address"
        }
      ],
      "stateMutability": "view",
      "type": "function",
      "constant": true
    },
    {
      "inputs": [],
      "name": "reportCount",
      "outputs": [
        {
          "internalType": "uint256",
          "name": "",
          "type": "uint256"
        }
      ],
      "stateMutability": "view",
      "type": "function",
      "constant": true
    },
    {
      "inputs": [
        {
          "internalType": "uint256",
          "name": "",
          "type": "uint256"
        }
      ],
      "name": "reports",
      "outputs": [
        {
          "internalType": "uint256",
          "name": "id",
          "type": "uint256"
        },
        {
          "internalType": "string",
          "name": "location",
          "type": "string"
        },
        {
          "internalType": "uint256",
          "name": "timestamp",
          "type": "uint256"
        },
        {
          "internalType": "address",
          "name": "reporter",
          "type": "address"
        },
        {
          "internalType": "enum Manager.HoleState",
          "name": "state",
          "type": "uint8"
        },
        {
          "internalType": "uint256",
          "name": "stateTimestamp",
          "type": "uint256"
        }
      ],
      "stateMutability": "view",
      "type": "function",
      "constant": true
    },
    {
      "inputs": [
        {
          "internalType": "address",
          "name": "",
          "type": "address"
        },
        {
          "internalType": "string",
          "name": "",
          "type": "string"
        }
      ],
      "name": "userReportTimestamps",
      "outputs": [
        {
          "internalType": "uint256",
          "name": "",
          "type": "uint256"
        }
      ],
      "stateMutability": "view",
      "type": "function",
      "constant": true
    },
    {
      "inputs": [
        {
          "internalType": "string",
          "name": "location",
          "type": "string"
        }
      ],
      "name": "reportHole",
      "outputs": [],
      "stateMutability": "nonpayable",
      "type": "function"
    },
    {
      "inputs": [
        {
          "internalType": "uint256",
          "name": "reportId",
          "type": "uint256"
        },
        {
          "internalType": "enum Manager.HoleState",
          "name": "newState",
          "type": "uint8"
        }
      ],
      "name": "updateHoleState",
      "outputs": [],
      "stateMutability": "nonpayable",
      "type": "function"
    },
    {
      "inputs": [
        {
          "internalType": "uint256",
          "name": "reportId",
          "type": "uint256"
        }
      ],
      "name": "evaluateReport",
      "outputs": [],
      "stateMutability": "nonpayable",
      "type": "function"
    },
    {
      "inputs": [],
      "name": "getAllHoles",
      "outputs": [
        {
          "components": [
            {
              "internalType": "uint256",
              "name": "id",
              "type": "uint256"
            },
            {
              "internalType": "string",
              "name": "location",
              "type": "string"
            },
            {
              "internalType": "uint256",
              "name": "timestamp",
              "type": "uint256"
            },
            {
              "internalType": "address",
              "name": "reporter",
              "type": "address"
            },
            {
              "internalType": "enum Manager.HoleState",
              "name": "state",
              "type": "uint8"
            },
            {
              "internalType": "uint256",
              "name": "stateTimestamp",
              "type": "uint256"
            }
          ],
          "internalType": "struct Manager.HoleReport[]",
          "name": "",
          "type": "tuple[]"
        }
      ],
      "stateMutability": "view",
      "type": "function",
      "constant": true
    },
    {
      "inputs": [
        {
          "internalType": "uint256",
          "name": "reportId",
          "type": "uint256"
        }
      ],
      "name": "getHole",
      "outputs": [
        {
          "components": [
            {
              "internalType": "uint256",
              "name": "id",
              "type": "uint256"
            },
            {
              "internalType": "string",
              "name": "location",
              "type": "string"
            },
            {
              "internalType": "uint256",
              "name": "timestamp",
              "type": "uint256"
            },
            {
              "internalType": "address",
              "name": "reporter",
              "type": "address"
            },
            {
              "internalType": "enum Manager.HoleState",
              "name": "state",
              "type": "uint8"
            },
            {
              "internalType": "uint256",
              "name": "stateTimestamp",
              "type": "uint256"
            }
          ],
          "internalType": "struct Manager.HoleReport",
          "name": "",
          "type": "tuple"
        }
      ],
      "stateMutability": "view",
      "type": "function",
      "constant": true
    }
  ],
  "bytecode": "0x608060405234801561001057600080fd5b5033600460006101000a81548173ffffffffffffffffffffffffffffffffffffffff021916908373ffffffffffffffffffffffffffffffffffffffff160217905550611c12806100616000396000f3fe608060405234801561001057600080fd5b506004361061009e5760003560e01c80635258740c116100665780635258740c146101595780637a84d83414610175578063ac205f0714610193578063ad623197146101b1578063c942adf7146101e15761009e565b8063185c6f84146100a35780631e4f5d8b146100c15780632860285b146100dd57806334e919301461010d5780633b5cd63414610129575b600080fd5b6100ab610216565b6040516100b89190610db3565b60405180910390f35b6100db60048036038101906100d69190610e33565b61021c565b005b6100f760048036038101906100f29190610e73565b6102ef565b6040516101049190611080565b60405180910390f35b610127600480360381019061012291906111d7565b61045d565b005b610143600480360381019061013e919061124c565b6107dc565b6040516101509190610db3565b60405180910390f35b610173600480360381019061016e9190610e73565b610817565b005b61017d6109e8565b60405161018a91906112b7565b60405180910390f35b61019b610a0e565b6040516101a8919061141d565b60405180910390f35b6101cb60048036038101906101c691906111d7565b610c1d565b6040516101d89190610db3565b60405180910390f35b6101fb60048036038101906101f69190610e73565b610c4b565b60405161020d96959493929190611498565b60405180910390f35b60005481565b6000600160008481526020019081526020016000209050600081600001540361027a576040517f08c379a00000000000000000000000000000000000000000000000000000000081526004016102719061154c565b60405180910390fd5b818160030160146101000a81548160ff021916908360028111156102a1576102a0610f80565b5b02179055504281600401819055507fa09c6409fa68b5535425f910a99a09dfc514efe1b214009edc6d7dc8b33692bf8383426040516102e29392919061156c565b60405180910390a1505050565b6102f7610d3c565b600160008381526020019081526020016000206040518060c00160405290816000820154815260200160018201805461032f906115d2565b80601f016020809104026020016040519081016040528092919081815260200182805461035b906115d2565b80156103a85780601f1061037d576101008083540402835291602001916103a8565b820191906000526020600020905b81548152906001019060200180831161038b57829003601f168201915b50505050508152602001600282015481526020016003820160009054906101000a900473ffffffffffffffffffffffffffffffffffffffff1673ffffffffffffffffffffffffffffffffffffffff1673ffffffffffffffffffffffffffffffffffffffff1681526020016003820160149054906101000a900460ff16600281111561043657610435610f80565b5b600281111561044857610447610f80565b5b81526020016004820154815250509050919050565b60004290506000600360003373ffffffffffffffffffffffffffffffffffffffff1673ffffffffffffffffffffffffffffffffffffffff168152602001908152602001600020836040516104b1919061163f565b9081526020016040518091039020541480610534575062015180600360003373ffffffffffffffffffffffffffffffffffffffff1673ffffffffffffffffffffffffffffffffffffffff16815260200190815260200160002083604051610518919061163f565b908152602001604051809103902054826105329190611685565b115b610573576040517f08c379a000000000000000000000000000000000000000000000000000000000815260040161056a9061172b565b60405180910390fd5b6003600283604051610585919061163f565b908152602001604051809103902054106105d4576040517f08c379a00000000000000000000000000000000000000000000000000000000081526004016105cb906117bd565b60405180910390fd5b6000808154809291906105e6906117dd565b91905055506040518060c0016040528060005481526020018381526020018281526020013373ffffffffffffffffffffffffffffffffffffffff1681526020016000600281111561063a57610639610f80565b5b815260200182815250600160008054815260200190815260200160002060008201518160000155602082015181600101908161067691906119d1565b506040820151816002015560608201518160030160006101000a81548173ffffffffffffffffffffffffffffffffffffffff021916908373ffffffffffffffffffffffffffffffffffffffff16021790555060808201518160030160146101000a81548160ff021916908360028111156106f3576106f2610f80565b5b021790555060a08201518160040155905050600282604051610715919061163f565b90815260200160405180910390206000815480929190610734906117dd565b919050555080600360003373ffffffffffffffffffffffffffffffffffffffff1673ffffffffffffffffffffffffffffffffffffffff16815260200190815260200160002083604051610787919061163f565b9081526020016040518091039020819055507fde97788b476ae2c298f3eafcdbbf25b0750a4da840dec090bc5a8c109904db2c6000548383336040516107d09493929190611aa3565b60405180910390a15050565b600360205281600052604060002081805160208101820180518482526020830160208501208183528095505050505050600091509150505481565b600460009054906101000a900473ffffffffffffffffffffffffffffffffffffffff1673ffffffffffffffffffffffffffffffffffffffff163373ffffffffffffffffffffffffffffffffffffffff16146108a7576040517f08c379a000000000000000000000000000000000000000000000000000000000815260040161089e90611b3b565b60405180910390fd5b60006001600083815260200190815260200160002090506000816000015403610905576040517f08c379a00000000000000000000000000000000000000000000000000000000081526004016108fc9061154c565b60405180910390fd5b60008160020154426109179190611685565b905062093a8081118015610960575060028081111561093957610938610f80565b5b8260030160149054906101000a900460ff16600281111561095d5761095c610f80565b5b14155b156109a6577f1d33f77aa419d8f76ed4caa70e768bba3ea78aa25dd0927590d95e51496ff3cb8342600160405161099993929190611b76565b60405180910390a16109e3565b7f1d33f77aa419d8f76ed4caa70e768bba3ea78aa25dd0927590d95e51496ff3cb834260006040516109da93929190611b76565b60405180910390a15b505050565b600460009054906101000a900473ffffffffffffffffffffffffffffffffffffffff1681565b60606000805467ffffffffffffffff811115610a2d57610a2c6110ac565b5b604051908082528060200260200182016040528015610a6657816020015b610a53610d3c565b815260200190600190039081610a4b5790505b5090506000600190505b6000548111610c1557600160008281526020019081526020016000206040518060c001604052908160008201548152602001600182018054610ab1906115d2565b80601f0160208091040260200160405190810160405280929190818152602001828054610add906115d2565b8015610b2a5780601f10610aff57610100808354040283529160200191610b2a565b820191906000526020600020905b815481529060010190602001808311610b0d57829003601f168201915b50505050508152602001600282015481526020016003820160009054906101000a900473ffffffffffffffffffffffffffffffffffffffff1673ffffffffffffffffffffffffffffffffffffffff1673ffffffffffffffffffffffffffffffffffffffff1681526020016003820160149054906101000a900460ff166002811115610bb857610bb7610f80565b5b6002811115610bca57610bc9610f80565b5b815260200160048201548152505082600183610be69190611685565b81518110610bf757610bf6611bad565b5b60200260200101819052508080610c0d906117dd565b915050610a70565b508091505090565b6002818051602081018201805184825260208301602085012081835280955050505050506000915090505481565b6001602052806000526040600020600091509050806000015490806001018054610c74906115d2565b80601f0160208091040260200160405190810160405280929190818152602001828054610ca0906115d2565b8015610ced5780601f10610cc257610100808354040283529160200191610ced565b820191906000526020600020905b815481529060010190602001808311610cd057829003601f168201915b5050505050908060020154908060030160009054906101000a900473ffffffffffffffffffffffffffffffffffffffff16908060030160149054906101000a900460ff16908060040154905086565b6040518060c00160405280600081526020016060815260200160008152602001600073ffffffffffffffffffffffffffffffffffffffff16815260200160006002811115610d8d57610d8c610f80565b5b8152602001600081525090565b6000819050919050565b610dad81610d9a565b82525050565b6000602082019050610dc86000830184610da4565b92915050565b6000604051905090565b600080fd5b600080fd5b610deb81610d9a565b8114610df657600080fd5b50565b600081359050610e0881610de2565b92915050565b60038110610e1b57600080fd5b50565b600081359050610e2d81610e0e565b92915050565b60008060408385031215610e4a57610e49610dd8565b5b6000610e5885828601610df9565b9250506020610e6985828601610e1e565b9150509250929050565b600060208284031215610e8957610e88610dd8565b5b6000610e9784828501610df9565b91505092915050565b610ea981610d9a565b82525050565b600081519050919050565b600082825260208201905092915050565b60005b83811015610ee9578082015181840152602081019050610ece565b60008484015250505050565b6000601f19601f8301169050919050565b6000610f1182610eaf565b610f1b8185610eba565b9350610f2b818560208601610ecb565b610f3481610ef5565b840191505092915050565b600073ffffffffffffffffffffffffffffffffffffffff82169050919050565b6000610f6a82610f3f565b9050919050565b610f7a81610f5f565b82525050565b7f4e487b7100000000000000000000000000000000000000000000000000000000600052602160045260246000fd5b60038110610fc057610fbf610f80565b5b50565b6000819050610fd182610faf565b919050565b6000610fe182610fc3565b9050919050565b610ff181610fd6565b82525050565b600060c08301600083015161100f6000860182610ea0565b50602083015184820360208601526110278282610f06565b915050604083015161103c6040860182610ea0565b50606083015161104f6060860182610f71565b5060808301516110626080860182610fe8565b5060a083015161107560a0860182610ea0565b508091505092915050565b6000602082019050818103600083015261109a8184610ff7565b905092915050565b600080fd5b600080fd5b7f4e487b7100000000000000000000000000000000000000000000000000000000600052604160045260246000fd5b6110e482610ef5565b810181811067ffffffffffffffff82111715611103576111026110ac565b5b80604052505050565b6000611116610dce565b905061112282826110db565b919050565b600067ffffffffffffffff821115611142576111416110ac565b5b61114b82610ef5565b9050602081019050919050565b82818337600083830152505050565b600061117a61117584611127565b61110c565b905082815260208101848484011115611196576111956110a7565b5b6111a1848285611158565b509392505050565b600082601f8301126111be576111bd6110a2565b5b81356111ce848260208601611167565b91505092915050565b6000602082840312156111ed576111ec610dd8565b5b600082013567ffffffffffffffff81111561120b5761120a610ddd565b5b611217848285016111a9565b91505092915050565b61122981610f5f565b811461123457600080fd5b50565b60008135905061124681611220565b92915050565b6000806040838503121561126357611262610dd8565b5b600061127185828601611237565b925050602083013567ffffffffffffffff81111561129257611291610ddd565b5b61129e858286016111a9565b9150509250929050565b6112b181610f5f565b82525050565b60006020820190506112cc60008301846112a8565b92915050565b600081519050919050565b600082825260208201905092915050565b6000819050602082019050919050565b600060c0830160008301516113166000860182610ea0565b506020830151848203602086015261132e8282610f06565b91505060408301516113436040860182610ea0565b5060608301516113566060860182610f71565b5060808301516113696080860182610fe8565b5060a083015161137c60a0860182610ea0565b508091505092915050565b600061139383836112fe565b905092915050565b6000602082019050919050565b60006113b3826112d2565b6113bd81856112dd565b9350836020820285016113cf856112ee565b8060005b8581101561140b57848403895281516113ec8582611387565b94506113f78361139b565b925060208a019950506001810190506113d3565b50829750879550505050505092915050565b6000602082019050818103600083015261143781846113a8565b905092915050565b600082825260208201905092915050565b600061145b82610eaf565b611465818561143f565b9350611475818560208601610ecb565b61147e81610ef5565b840191505092915050565b61149281610fd6565b82525050565b600060c0820190506114ad6000830189610da4565b81810360208301526114bf8188611450565b90506114ce6040830187610da4565b6114db60608301866112a8565b6114e86080830185611489565b6114f560a0830184610da4565b979650505050505050565b7f5265706f727420646f6573206e6f742065786973740000000000000000000000600082015250565b600061153660158361143f565b915061154182611500565b602082019050919050565b6000602082019050818103600083015261156581611529565b9050919050565b60006060820190506115816000830186610da4565b61158e6020830185611489565b61159b6040830184610da4565b949350505050565b7f4e487b7100000000000000000000000000000000000000000000000000000000600052602260045260246000fd5b600060028204905060018216806115ea57607f821691505b6020821081036115fd576115fc6115a3565b5b50919050565b600081905092915050565b600061161982610eaf565b6116238185611603565b9350611633818560208601610ecb565b80840191505092915050565b600061164b828461160e565b915081905092915050565b7f4e487b7100000000000000000000000000000000000000000000000000000000600052601160045260246000fd5b600061169082610d9a565b915061169b83610d9a565b92508282039050818111156116b3576116b2611656565b5b92915050565b7f596f75206861766520616c7265616479207265706f727465642074686973206c60008201527f6f636174696f6e20746f6461792e000000000000000000000000000000000000602082015250565b6000611715602e8361143f565b9150611720826116b9565b604082019050919050565b6000602082019050818103600083015261174481611708565b9050919050565b7f4461696c79207265706f7274206c696d6974207265616368656420666f72207460008201527f686973206c6f636174696f6e0000000000000000000000000000000000000000602082015250565b60006117a7602c8361143f565b91506117b28261174b565b604082019050919050565b600060208201905081810360008301526117d68161179a565b9050919050565b60006117e882610d9a565b91507fffffffffffffffffffffffffffffffffffffffffffffffffffffffffffffffff820361181a57611819611656565b5b600182019050919050565b60008190508160005260206000209050919050565b60006020601f8301049050919050565b600082821b905092915050565b6000600883026118877fffffffffffffffffffffffffffffffffffffffffffffffffffffffffffffffff8261184a565b611891868361184a565b95508019841693508086168417925050509392505050565b6000819050919050565b60006118ce6118c96118c484610d9a565b6118a9565b610d9a565b9050919050565b6000819050919050565b6118e8836118b3565b6118fc6118f4826118d5565b848454611857565b825550505050565b600090565b611911611904565b61191c8184846118df565b505050565b5b8181101561194057611935600082611909565b600181019050611922565b5050565b601f8211156119855761195681611825565b61195f8461183a565b8101602085101561196e578190505b61198261197a8561183a565b830182611921565b50505b505050565b600082821c905092915050565b60006119a86000198460080261198a565b1980831691505092915050565b60006119c18383611997565b9150826002028217905092915050565b6119da82610eaf565b67ffffffffffffffff8111156119f3576119f26110ac565b5b6119fd82546115d2565b611a08828285611944565b600060209050601f831160018114611a3b5760008415611a29578287015190505b611a3385826119b5565b865550611a9b565b601f198416611a4986611825565b60005b82811015611a7157848901518255600182019150602085019450602081019050611a4c565b86831015611a8e5784890151611a8a601f891682611997565b8355505b6001600288020188555050505b505050505050565b6000608082019050611ab86000830187610da4565b8181036020830152611aca8186611450565b9050611ad96040830185610da4565b611ae660608301846112a8565b95945050505050565b7f4e6f7420617574686f72697a65643a204d696e6973747279206f6e6c79000000600082015250565b6000611b25601d8361143f565b9150611b3082611aef565b602082019050919050565b60006020820190508181036000830152611b5481611b18565b9050919050565b60008115159050919050565b611b7081611b5b565b82525050565b6000606082019050611b8b6000830186610da4565b611b986020830185610da4565b611ba56040830184611b67565b949350505050565b7f4e487b7100000000000000000000000000000000000000000000000000000000600052603260045260246000fdfea26469706673582212207796cc2be3e075a9495fc82c8053dd63d690856bfd0a5567cb064ee5aaeef03c64736f6c63430008130033",
  "immutableReferences": {},
  "source": "// SPDX-License-Identifier: MIT\npragma solidity ^0.8.19;\n\ncontract Manager {\n    enum HoleState { Pending, Fixing, Fixed }\n\n    struct HoleReport {\n        uint256 id;\n        string location;\n        uint256 timestamp;\n        address reporter;\n        HoleState state;\n        uint256 stateTimestamp;\n    }\n\n    uint256 public reportCount; // Counter for reports\n    mapping(uint256 => HoleReport) public reports; // Mapping of report ID to HoleReport\n    mapping(string => uint256) public dailyReportCount; // Track daily reports per location\n    mapping(address => mapping(string => uint256)) public userReportTimestamps; // Track user's last report per location\n\n    address public ministry; // Ministry address\n\n    event HoleReported(uint256 id, string location, uint256 timestamp, address reporter);\n    event HoleStateChanged(uint256 id, HoleState state, uint256 timestamp);\n    event MunicipalityAction(uint256 reportId, uint256 actionTimestamp, bool isPunished);\n\n    modifier onlyMinistry() {\n        require(msg.sender == ministry, \"Not authorized: Ministry only\");\n        _;\n    }\n\n    constructor() {\n        ministry = msg.sender; // Set ministry as the contract deployer\n    }\n\n    // Citizens report holes\n    function reportHole(string memory location) public {\n        uint256 currentTime = block.timestamp;\n\n        // Check if the user has already reported this location within the last 24 hours\n        require(\n            userReportTimestamps[msg.sender][location] == 0 ||\n            (currentTime - userReportTimestamps[msg.sender][location]) > 1 days,\n            \"You have already reported this location today.\"\n        );\n\n        // Check if daily report limit (e.g., 3 reports per location) is exceeded\n        require(dailyReportCount[location] < 3, \"Daily report limit reached for this location\");\n\n        // Create a new report\n        reportCount++;\n        reports[reportCount] = HoleReport(\n            reportCount,\n            location,\n            currentTime,\n            msg.sender,\n            HoleState.Pending,\n            currentTime\n        );\n\n        // Increment daily report count and update user's last report timestamp\n        dailyReportCount[location]++;\n        userReportTimestamps[msg.sender][location] = currentTime;\n\n        emit HoleReported(reportCount, location, currentTime, msg.sender);\n    }\n\n    // Municipalities update the state of a hole\n    function updateHoleState(uint256 reportId, HoleState newState) public {\n        HoleReport storage report = reports[reportId];\n\n        // Ensure the report exists\n        require(report.id != 0, \"Report does not exist\");\n\n        // Update the report state\n        report.state = newState;\n        report.stateTimestamp = block.timestamp;\n\n        emit HoleStateChanged(reportId, newState, block.timestamp);\n    }\n\n    // Ministry evaluates a report\n    function evaluateReport(uint256 reportId) public onlyMinistry {\n        HoleReport storage report = reports[reportId];\n\n        // Ensure the report exists\n        require(report.id != 0, \"Report does not exist\");\n\n        uint256 timeElapsed = block.timestamp - report.timestamp;\n\n        // Check if the report took longer than 1 week\n        if (timeElapsed > 1 weeks && report.state != HoleState.Fixed) {\n            emit MunicipalityAction(reportId, block.timestamp, true); // Punished\n        } else {\n            emit MunicipalityAction(reportId, block.timestamp, false); // Awarded\n        }\n    }\n\n    // Function to get all reported holes\n    function getAllHoles() public view returns (HoleReport[] memory) {\n        HoleReport[] memory holeReports = new HoleReport[](reportCount);\n        for (uint256 i = 1; i <= reportCount; i++) {\n            holeReports[i - 1] = reports[i];\n        }\n        return holeReports;\n    }\n\n    // Function to get a specific hole report\n    function getHole(uint256 reportId) public view returns (HoleReport memory) {\n        return reports[reportId];\n    }\n}\n",
  "sourcePath": "/home/omar/FlutterProjects/Blockchain_project/backend/contracts/Manager.sol",
  "compiler": {
    "name": "solc",
    "version": "0.8.19+commit.7dd6d404.Emscripten.clang"
  },
  "schemaVersion": "3.4.16",
  "updatedAt": "2024-12-08T16:38:22.381Z",
  "networkType": "ethereum",
  "devdoc": {
    "kind": "dev",
    "methods": {},
    "version": 1
  },
  "userdoc": {
    "kind": "user",
    "methods": {},
    "version": 1
  }
}