{
  "contractName": "Ministry",
  "abi": [
    {
      "anonymous": false,
      "inputs": [
        {
          "indexed": false,
          "internalType": "address",
          "name": "municipality",
          "type": "address"
        },
        {
          "indexed": false,
          "internalType": "uint256",
          "name": "reportId",
          "type": "uint256"
        },
        {
          "indexed": false,
          "internalType": "enum Ministry.Action",
          "name": "action",
          "type": "uint8"
        },
        {
          "indexed": false,
          "internalType": "uint256",
          "name": "timestamp",
          "type": "uint256"
        }
      ],
      "name": "MunicipalityAction",
      "type": "event"
    },
    {
      "inputs": [],
      "name": "awardPeriod",
      "outputs": [
        {
          "internalType": "uint256",
          "name": "",
          "type": "uint256"
        }
      ],
      "stateMutability": "view",
      "type": "function",
      "constant": true
    },
    {
      "inputs": [
        {
          "internalType": "uint256",
          "name": "",
          "type": "uint256"
        }
      ],
      "name": "municipalityActions",
      "outputs": [
        {
          "internalType": "uint256",
          "name": "reportId",
          "type": "uint256"
        },
        {
          "internalType": "uint256",
          "name": "timestamp",
          "type": "uint256"
        },
        {
          "internalType": "enum Ministry.Action",
          "name": "action",
          "type": "uint8"
        }
      ],
      "stateMutability": "view",
      "type": "function",
      "constant": true
    },
    {
      "inputs": [],
      "name": "penaltyPeriod",
      "outputs": [
        {
          "internalType": "uint256",
          "name": "",
          "type": "uint256"
        }
      ],
      "stateMutability": "view",
      "type": "function",
      "constant": true
    },
    {
      "inputs": [
        {
          "internalType": "address",
          "name": "",
          "type": "address"
        }
      ],
      "name": "registeredMunicipalities",
      "outputs": [
        {
          "internalType": "bool",
          "name": "",
          "type": "bool"
        }
      ],
      "stateMutability": "view",
      "type": "function",
      "constant": true
    },
    {
      "inputs": [
        {
          "internalType": "address",
          "name": "municipality",
          "type": "address"
        }
      ],
      "name": "registerMunicipality",
      "outputs": [],
      "stateMutability": "nonpayable",
      "type": "function"
    },
    {
      "inputs": [
        {
          "internalType": "address",
          "name": "municipalityContract",
          "type": "address"
        },
        {
          "internalType": "uint256",
          "name": "reportId",
          "type": "uint256"
        }
      ],
      "name": "trackMunicipalityAction",
      "outputs": [],
      "stateMutability": "nonpayable",
      "type": "function"
    }
  ],
  "bytecode": "0x608060405262093a8060025562093a8060035534801561001e57600080fd5b50610a948061002e6000396000f3fe608060405234801561001057600080fd5b50600436106100625760003560e01c80631dceaa561461006757806332279be4146100995780636b0e55ae146100b7578063a1dba82f146100d5578063ca57fa6f14610105578063f1c2afba14610121575b600080fd5b610081600480360381019061007c91906104cb565b61013d565b6040516100909392919061057e565b60405180910390f35b6100a1610174565b6040516100ae91906105b5565b60405180910390f35b6100bf61017a565b6040516100cc91906105b5565b60405180910390f35b6100ef60048036038101906100ea919061062e565b610180565b6040516100fc9190610676565b60405180910390f35b61011f600480360381019061011a919061062e565b6101a0565b005b61013b60048036038101906101369190610691565b6101fa565b005b60006020528060005260406000206000915090508060000154908060010154908060020160009054906101000a900460ff16905083565b60025481565b60035481565b60016020528060005260406000206000915054906101000a900460ff1681565b60018060008373ffffffffffffffffffffffffffffffffffffffff1673ffffffffffffffffffffffffffffffffffffffff16815260200190815260200160002060006101000a81548160ff02191690831515021790555050565b600082905060008060008373ffffffffffffffffffffffffffffffffffffffff1663c942adf7866040518263ffffffff1660e01b815260040161023d91906105b5565b600060405180830381865afa15801561025a573d6000803e3d6000fd5b505050506040513d6000823e3d601f19601f820116820180604052508101906102839190610881565b509450509350509250600083036102cf576040517f08c379a00000000000000000000000000000000000000000000000000000000081526004016102c690610987565b60405180910390fd5b600082426102dd91906109d6565b90506002548111156103b257604051806060016040528087815260200142815260200160028081111561031357610312610507565b5b815250600080888152602001908152602001600020600082015181600001556020820151816001015560408201518160020160006101000a81548160ff0219169083600281111561036757610366610507565b5b02179055509050507f25d03c270c20f512818b00621a19cee5b5f49966b3d79abd5b503687ffc2008487876002426040516103a59493929190610a19565b60405180910390a1610478565b6040518060600160405280878152602001428152602001600160028111156103dd576103dc610507565b5b815250600080888152602001908152602001600020600082015181600001556020820151816001015560408201518160020160006101000a81548160ff0219169083600281111561043157610430610507565b5b02179055509050507f25d03c270c20f512818b00621a19cee5b5f49966b3d79abd5b503687ffc20084878760014260405161046f9493929190610a19565b60405180910390a15b50505050505050565b6000604051905090565b600080fd5b600080fd5b6000819050919050565b6104a881610495565b81146104b357600080fd5b50565b6000813590506104c58161049f565b92915050565b6000602082840312156104e1576104e061048b565b5b60006104ef848285016104b6565b91505092915050565b61050181610495565b82525050565b7f4e487b7100000000000000000000000000000000000000000000000000000000600052602160045260246000fd5b6003811061054757610546610507565b5b50565b600081905061055882610536565b919050565b60006105688261054a565b9050919050565b6105788161055d565b82525050565b600060608201905061059360008301866104f8565b6105a060208301856104f8565b6105ad604083018461056f565b949350505050565b60006020820190506105ca60008301846104f8565b92915050565b600073ffffffffffffffffffffffffffffffffffffffff82169050919050565b60006105fb826105d0565b9050919050565b61060b816105f0565b811461061657600080fd5b50565b60008135905061062881610602565b92915050565b6000602082840312156106445761064361048b565b5b600061065284828501610619565b91505092915050565b60008115159050919050565b6106708161065b565b82525050565b600060208201905061068b6000830184610667565b92915050565b600080604083850312156106a8576106a761048b565b5b60006106b685828601610619565b92505060206106c7858286016104b6565b9150509250929050565b6000815190506106e08161049f565b92915050565b600080fd5b600080fd5b6000601f19601f8301169050919050565b7f4e487b7100000000000000000000000000000000000000000000000000000000600052604160045260246000fd5b610739826106f0565b810181811067ffffffffffffffff8211171561075857610757610701565b5b80604052505050565b600061076b610481565b90506107778282610730565b919050565b600067ffffffffffffffff82111561079757610796610701565b5b6107a0826106f0565b9050602081019050919050565b60005b838110156107cb5780820151818401526020810190506107b0565b60008484015250505050565b60006107ea6107e58461077c565b610761565b905082815260208101848484011115610806576108056106eb565b5b6108118482856107ad565b509392505050565b600082601f83011261082e5761082d6106e6565b5b815161083e8482602086016107d7565b91505092915050565b60008151905061085681610602565b92915050565b6003811061086957600080fd5b50565b60008151905061087b8161085c565b92915050565b60008060008060008060c0878903121561089e5761089d61048b565b5b60006108ac89828a016106d1565b965050602087015167ffffffffffffffff8111156108cd576108cc610490565b5b6108d989828a01610819565b95505060406108ea89828a016106d1565b94505060606108fb89828a01610847565b935050608061090c89828a0161086c565b92505060a061091d89828a016106d1565b9150509295509295509295565b600082825260208201905092915050565b7f5265706f727420646f6573206e6f742065786973740000000000000000000000600082015250565b600061097160158361092a565b915061097c8261093b565b602082019050919050565b600060208201905081810360008301526109a081610964565b9050919050565b7f4e487b7100000000000000000000000000000000000000000000000000000000600052601160045260246000fd5b60006109e182610495565b91506109ec83610495565b9250828203905081811115610a0457610a036109a7565b5b92915050565b610a13816105f0565b82525050565b6000608082019050610a2e6000830187610a0a565b610a3b60208301866104f8565b610a48604083018561056f565b610a5560608301846104f8565b9594505050505056fea2646970667358221220648e9936c9ec4c69cbd90610956d83c1cce47e7f554ad800b6656bbc5f5f721d64736f6c63430008130033",
  "immutableReferences": {},
  "source": "// SPDX-License-Identifier: MIT\r\npragma solidity ^0.8.19;\r\n\r\nimport \"./municipality.sol\"; // Import the Municipality contract\r\n\r\ncontract Ministry {\r\n    enum Action { None, Award, Punish }\r\n\r\n    struct MunicipalityRecord {\r\n        uint256 reportId;\r\n        uint256 timestamp;\r\n        Action action;\r\n    }\r\n\r\n    mapping(uint256 => MunicipalityRecord) public municipalityActions;\r\n    mapping(address => bool) public registeredMunicipalities;\r\n\r\n    event MunicipalityAction(address municipality, uint256 reportId, Action action, uint256 timestamp);\r\n\r\n    uint256 public penaltyPeriod = 1 weeks; // Punishment period (1 week)\r\n    uint256 public awardPeriod = 1 weeks;  // Award period (1 week)\r\n\r\n    modifier onlyMunicipality() {\r\n        require(registeredMunicipalities[msg.sender], \"Not a registered municipality\");\r\n        _;\r\n    }\r\n\r\n    // Register a municipality (can be done by the admin)\r\n    function registerMunicipality(address municipality) public {\r\n        registeredMunicipalities[municipality] = true;\r\n    }\r\n\r\n    // Listen for state changes in the Municipality contract\r\n    function trackMunicipalityAction(address municipalityContract, uint256 reportId) public {\r\n    // Get the Municipality contract instance\r\n    Municipality municipality = Municipality(municipalityContract);\r\n\r\n    // Retrieve the report from the Municipality contract\r\n    (uint256 id, , uint256 timestamp, , Municipality.HoleState state, ) = municipality.reports(reportId);\r\n\r\n    require(id != 0, \"Report does not exist\");\r\n\r\n    uint256 timeTaken = block.timestamp - timestamp;\r\n\r\n    // Check if the report took longer than the penalty period\r\n    if (timeTaken > penaltyPeriod) {\r\n        municipalityActions[reportId] = MunicipalityRecord(reportId, block.timestamp, Action.Punish);\r\n        emit MunicipalityAction(municipalityContract, reportId, Action.Punish, block.timestamp);\r\n    } else {\r\n        municipalityActions[reportId] = MunicipalityRecord(reportId, block.timestamp, Action.Award);\r\n        emit MunicipalityAction(municipalityContract, reportId, Action.Award, block.timestamp);\r\n    }\r\n}\r\n}\r\n",
  "sourcePath": "E:\\Bureau\\Blockchain\\Blockchain_project\\backend\\contracts\\ministry.sol",
  "compiler": {
    "name": "solc",
    "version": "0.8.19+commit.7dd6d404.Emscripten.clang"
  },
  "schemaVersion": "3.4.16",
  "updatedAt": "2024-12-08T13:54:51.344Z",
  "networkType": "ethereum",
  "devdoc": {
    "kind": "dev",
    "methods": {},
    "version": 1
  },
  "userdoc": {
    "kind": "user",
    "methods": {},
    "version": 1
  }
}