{
  "contractName": "Municipality",
  "abi": [
    {
      "anonymous": false,
      "inputs": [
        {
          "indexed": false,
          "internalType": "uint256",
          "name": "id",
          "type": "uint256"
        },
        {
          "indexed": false,
          "internalType": "string",
          "name": "location",
          "type": "string"
        },
        {
          "indexed": false,
          "internalType": "address",
          "name": "reporter",
          "type": "address"
        }
      ],
      "name": "HoleReported",
      "type": "event"
    },
    {
      "anonymous": false,
      "inputs": [
        {
          "indexed": false,
          "internalType": "uint256",
          "name": "id",
          "type": "uint256"
        },
        {
          "indexed": false,
          "internalType": "enum Municipality.HoleState",
          "name": "state",
          "type": "uint8"
        },
        {
          "indexed": false,
          "internalType": "uint256",
          "name": "timestamp",
          "type": "uint256"
        }
      ],
      "name": "HoleStateChanged",
      "type": "event"
    },
    {
      "inputs": [
        {
          "internalType": "string",
          "name": "",
          "type": "string"
        }
      ],
      "name": "locationReportCount",
      "outputs": [
        {
          "internalType": "uint256",
          "name": "",
          "type": "uint256"
        }
      ],
      "stateMutability": "view",
      "type": "function",
      "constant": true
    },
    {
      "inputs": [],
      "name": "reportCount",
      "outputs": [
        {
          "internalType": "uint256",
          "name": "",
          "type": "uint256"
        }
      ],
      "stateMutability": "view",
      "type": "function",
      "constant": true
    },
    {
      "inputs": [
        {
          "internalType": "uint256",
          "name": "",
          "type": "uint256"
        }
      ],
      "name": "reportIds",
      "outputs": [
        {
          "internalType": "uint256",
          "name": "",
          "type": "uint256"
        }
      ],
      "stateMutability": "view",
      "type": "function",
      "constant": true
    },
    {
      "inputs": [
        {
          "internalType": "uint256",
          "name": "",
          "type": "uint256"
        }
      ],
      "name": "reports",
      "outputs": [
        {
          "internalType": "uint256",
          "name": "id",
          "type": "uint256"
        },
        {
          "internalType": "string",
          "name": "location",
          "type": "string"
        },
        {
          "internalType": "uint256",
          "name": "timestamp",
          "type": "uint256"
        },
        {
          "internalType": "address",
          "name": "reporter",
          "type": "address"
        },
        {
          "internalType": "enum Municipality.HoleState",
          "name": "state",
          "type": "uint8"
        },
        {
          "internalType": "uint256",
          "name": "stateTimestamp",
          "type": "uint256"
        }
      ],
      "stateMutability": "view",
      "type": "function",
      "constant": true
    },
    {
      "inputs": [
        {
          "internalType": "uint256",
          "name": "reportId",
          "type": "uint256"
        },
        {
          "internalType": "enum Municipality.HoleState",
          "name": "newState",
          "type": "uint8"
        }
      ],
      "name": "updateHoleState",
      "outputs": [],
      "stateMutability": "nonpayable",
      "type": "function"
    },
    {
      "inputs": [
        {
          "internalType": "uint256",
          "name": "id",
          "type": "uint256"
        },
        {
          "internalType": "string",
          "name": "location",
          "type": "string"
        },
        {
          "internalType": "address",
          "name": "reporter",
          "type": "address"
        }
      ],
      "name": "createReport",
      "outputs": [],
      "stateMutability": "nonpayable",
      "type": "function"
    }
  ],
  "bytecode": "0x608060405234801561001057600080fd5b50610f24806100206000396000f3fe608060405234801561001057600080fd5b50600436106100625760003560e01c8063185c6f84146100675780631e4f5d8b1461008557806340216d20146100a157806387cc66de146100d1578063c942adf714610101578063e261dfd614610136575b600080fd5b61006f610152565b60405161007c9190610596565b60405180910390f35b61009f600480360381019061009a9190610616565b610158565b005b6100bb60048036038101906100b6919061079c565b61022b565b6040516100c89190610596565b60405180910390f35b6100eb60048036038101906100e691906107e5565b610259565b6040516100f89190610596565b60405180910390f35b61011b600480360381019061011691906107e5565b61027d565b60405161012d96959493929190610949565b60405180910390f35b610150600480360381019061014b91906109dd565b61036e565b005b60015481565b600060026000848152602001908152602001600020905060008160000154036101b6576040517f08c379a00000000000000000000000000000000000000000000000000000000081526004016101ad90610a98565b60405180910390fd5b818160030160146101000a81548160ff021916908360028111156101dd576101dc6108d2565b5b02179055504281600401819055507fa09c6409fa68b5535425f910a99a09dfc514efe1b214009edc6d7dc8b33692bf83834260405161021e93929190610ab8565b60405180910390a1505050565b6003818051602081018201805184825260208301602085012081835280955050505050506000915090505481565b6000818154811061026957600080fd5b906000526020600020016000915090505481565b60026020528060005260406000206000915090508060000154908060010180546102a690610b1e565b80601f01602080910402602001604051908101604052809291908181526020018280546102d290610b1e565b801561031f5780601f106102f45761010080835404028352916020019161031f565b820191906000526020600020905b81548152906001019060200180831161030257829003601f168201915b5050505050908060020154908060030160009054906101000a900473ffffffffffffffffffffffffffffffffffffffff16908060030160149054906101000a900460ff16908060040154905086565b6001600081548092919061038190610b7e565b91905055506040518060c0016040528060015481526020018381526020014281526020018273ffffffffffffffffffffffffffffffffffffffff168152602001600060028111156103d5576103d46108d2565b5b8152602001428152506002600060015481526020019081526020016000206000820151816000015560208201518160010190816104129190610d72565b506040820151816002015560608201518160030160006101000a81548173ffffffffffffffffffffffffffffffffffffffff021916908373ffffffffffffffffffffffffffffffffffffffff16021790555060808201518160030160146101000a81548160ff0219169083600281111561048f5761048e6108d2565b5b021790555060a0820151816004015590505060015460026000600154815260200190815260200160002060000154146104fd576040517f08c379a00000000000000000000000000000000000000000000000000000000081526004016104f490610e90565b60405180910390fd5b7fef68dfa45b32e7a9ba84a4219914430fdb97257b2ca6432f4b68500597c611d2600154838360405161053293929190610eb0565b60405180910390a17fa09c6409fa68b5535425f910a99a09dfc514efe1b214009edc6d7dc8b33692bf60015460004260405161057093929190610ab8565b60405180910390a1505050565b6000819050919050565b6105908161057d565b82525050565b60006020820190506105ab6000830184610587565b92915050565b6000604051905090565b600080fd5b600080fd5b6105ce8161057d565b81146105d957600080fd5b50565b6000813590506105eb816105c5565b92915050565b600381106105fe57600080fd5b50565b600081359050610610816105f1565b92915050565b6000806040838503121561062d5761062c6105bb565b5b600061063b858286016105dc565b925050602061064c85828601610601565b9150509250929050565b600080fd5b600080fd5b6000601f19601f8301169050919050565b7f4e487b7100000000000000000000000000000000000000000000000000000000600052604160045260246000fd5b6106a982610660565b810181811067ffffffffffffffff821117156106c8576106c7610671565b5b80604052505050565b60006106db6105b1565b90506106e782826106a0565b919050565b600067ffffffffffffffff82111561070757610706610671565b5b61071082610660565b9050602081019050919050565b82818337600083830152505050565b600061073f61073a846106ec565b6106d1565b90508281526020810184848401111561075b5761075a61065b565b5b61076684828561071d565b509392505050565b600082601f83011261078357610782610656565b5b813561079384826020860161072c565b91505092915050565b6000602082840312156107b2576107b16105bb565b5b600082013567ffffffffffffffff8111156107d0576107cf6105c0565b5b6107dc8482850161076e565b91505092915050565b6000602082840312156107fb576107fa6105bb565b5b6000610809848285016105dc565b91505092915050565b600081519050919050565b600082825260208201905092915050565b60005b8381101561084c578082015181840152602081019050610831565b60008484015250505050565b600061086382610812565b61086d818561081d565b935061087d81856020860161082e565b61088681610660565b840191505092915050565b600073ffffffffffffffffffffffffffffffffffffffff82169050919050565b60006108bc82610891565b9050919050565b6108cc816108b1565b82525050565b7f4e487b7100000000000000000000000000000000000000000000000000000000600052602160045260246000fd5b60038110610912576109116108d2565b5b50565b600081905061092382610901565b919050565b600061093382610915565b9050919050565b61094381610928565b82525050565b600060c08201905061095e6000830189610587565b81810360208301526109708188610858565b905061097f6040830187610587565b61098c60608301866108c3565b610999608083018561093a565b6109a660a0830184610587565b979650505050505050565b6109ba816108b1565b81146109c557600080fd5b50565b6000813590506109d7816109b1565b92915050565b6000806000606084860312156109f6576109f56105bb565b5b6000610a04868287016105dc565b935050602084013567ffffffffffffffff811115610a2557610a246105c0565b5b610a318682870161076e565b9250506040610a42868287016109c8565b9150509250925092565b7f5265706f727420646f6573206e6f742065786973740000000000000000000000600082015250565b6000610a8260158361081d565b9150610a8d82610a4c565b602082019050919050565b60006020820190508181036000830152610ab181610a75565b9050919050565b6000606082019050610acd6000830186610587565b610ada602083018561093a565b610ae76040830184610587565b949350505050565b7f4e487b7100000000000000000000000000000000000000000000000000000000600052602260045260246000fd5b60006002820490506001821680610b3657607f821691505b602082108103610b4957610b48610aef565b5b50919050565b7f4e487b7100000000000000000000000000000000000000000000000000000000600052601160045260246000fd5b6000610b898261057d565b91507fffffffffffffffffffffffffffffffffffffffffffffffffffffffffffffffff8203610bbb57610bba610b4f565b5b600182019050919050565b60008190508160005260206000209050919050565b60006020601f8301049050919050565b600082821b905092915050565b600060088302610c287fffffffffffffffffffffffffffffffffffffffffffffffffffffffffffffffff82610beb565b610c328683610beb565b95508019841693508086168417925050509392505050565b6000819050919050565b6000610c6f610c6a610c658461057d565b610c4a565b61057d565b9050919050565b6000819050919050565b610c8983610c54565b610c9d610c9582610c76565b848454610bf8565b825550505050565b600090565b610cb2610ca5565b610cbd818484610c80565b505050565b5b81811015610ce157610cd6600082610caa565b600181019050610cc3565b5050565b601f821115610d2657610cf781610bc6565b610d0084610bdb565b81016020851015610d0f578190505b610d23610d1b85610bdb565b830182610cc2565b50505b505050565b600082821c905092915050565b6000610d4960001984600802610d2b565b1980831691505092915050565b6000610d628383610d38565b9150826002028217905092915050565b610d7b82610812565b67ffffffffffffffff811115610d9457610d93610671565b5b610d9e8254610b1e565b610da9828285610ce5565b600060209050601f831160018114610ddc5760008415610dca578287015190505b610dd48582610d56565b865550610e3c565b601f198416610dea86610bc6565b60005b82811015610e1257848901518255600182019150602085019450602081019050610ded565b86831015610e2f5784890151610e2b601f891682610d38565b8355505b6001600288020188555050505b505050505050565b7f5265706f727420776173206e6f742061646465642070726f7065726c79000000600082015250565b6000610e7a601d8361081d565b9150610e8582610e44565b602082019050919050565b60006020820190508181036000830152610ea981610e6d565b9050919050565b6000606082019050610ec56000830186610587565b8181036020830152610ed78185610858565b9050610ee660408301846108c3565b94935050505056fea2646970667358221220fb88e7f63a39ecebac9f73d3d9a1fcf8c8d8b179e78aa0c55817733d3616b69d64736f6c63430008130033",
  "immutableReferences": {},
  "source": "// SPDX-License-Identifier: MIT\npragma solidity ^0.8.19;\n\ncontract Municipality {\n    enum HoleState { Pending, Fixing, Fixed }\n\n    uint256[] public reportIds;\n\n    struct Report {\n        uint256 id;\n        string location;\n        uint256 timestamp;\n        address reporter;\n        HoleState state;\n        uint256 stateTimestamp; // Timestamp when the state was last updated\n    }\n\n    uint256 public reportCount;\n    mapping(uint256 => Report) public reports;\n    mapping(string => uint256) public locationReportCount;\n\n    // Event emitted when a hole's state changes\n    event HoleStateChanged(uint256 id, HoleState state, uint256 timestamp);\n\n    // Event emitted when a new hole is reported\n    event HoleReported(uint256 id, string location, address reporter); // <-- Ajout ici\n\n    // Function to update the hole's state (municipality's action)\n    function updateHoleState(uint256 reportId, HoleState newState) public {\n        Report storage report = reports[reportId];\n        \n        // Ensure the report exists\n        require(report.id != 0, \"Report does not exist\");\n        \n        // Set the new state and timestamp\n        report.state = newState;\n        report.stateTimestamp = block.timestamp;\n        \n        emit HoleStateChanged(reportId, newState, block.timestamp);\n    }\n\n    // Function to create or manage a report (initially pending)\n    function createReport(uint256 id, string memory location, address reporter) public {\n        reportCount++;\n        reports[reportCount] = Report(reportCount, location, block.timestamp, reporter, HoleState.Pending, block.timestamp);\n        \n        // Debugging: Verify if report is added correctly\n        require(reports[reportCount].id == reportCount, \"Report was not added properly\");\n\n        // Emit both events: HoleReported and HoleStateChanged\n        emit HoleReported(reportCount, location, reporter); // <-- Ajout ici\n        emit HoleStateChanged(reportCount, HoleState.Pending, block.timestamp);\n    }\n     \n}\n",
  "sourcePath": "/home/omar/FlutterProjects/Blockchain_project/backend/contracts/municipality.sol",
  "compiler": {
    "name": "solc",
    "version": "0.8.19+commit.7dd6d404.Emscripten.clang"
  },
  "schemaVersion": "3.4.16",
  "updatedAt": "2024-12-27T14:14:26.100Z",
  "networkType": "ethereum",
  "devdoc": {
    "kind": "dev",
    "methods": {},
    "version": 1
  },
  "userdoc": {
    "kind": "user",
    "methods": {},
    "version": 1
  }
}