{
  "contractName": "Municipality",
  "abi": [
    {
      "anonymous": false,
      "inputs": [
        {
          "indexed": false,
          "internalType": "uint256",
          "name": "id",
          "type": "uint256"
        },
        {
          "indexed": false,
          "internalType": "enum Municipality.HoleState",
          "name": "state",
          "type": "uint8"
        },
        {
          "indexed": false,
          "internalType": "uint256",
          "name": "timestamp",
          "type": "uint256"
        }
      ],
      "name": "HoleStateChanged",
      "type": "event"
    },
    {
      "inputs": [
        {
          "internalType": "string",
          "name": "",
          "type": "string"
        }
      ],
      "name": "locationReportCount",
      "outputs": [
        {
          "internalType": "uint256",
          "name": "",
          "type": "uint256"
        }
      ],
      "stateMutability": "view",
      "type": "function",
      "constant": true
    },
    {
      "inputs": [],
      "name": "reportCount",
      "outputs": [
        {
          "internalType": "uint256",
          "name": "",
          "type": "uint256"
        }
      ],
      "stateMutability": "view",
      "type": "function",
      "constant": true
    },
    {
      "inputs": [
        {
          "internalType": "uint256",
          "name": "",
          "type": "uint256"
        }
      ],
      "name": "reports",
      "outputs": [
        {
          "internalType": "uint256",
          "name": "id",
          "type": "uint256"
        },
        {
          "internalType": "string",
          "name": "location",
          "type": "string"
        },
        {
          "internalType": "uint256",
          "name": "timestamp",
          "type": "uint256"
        },
        {
          "internalType": "address",
          "name": "reporter",
          "type": "address"
        },
        {
          "internalType": "enum Municipality.HoleState",
          "name": "state",
          "type": "uint8"
        },
        {
          "internalType": "uint256",
          "name": "stateTimestamp",
          "type": "uint256"
        }
      ],
      "stateMutability": "view",
      "type": "function",
      "constant": true
    },
    {
      "inputs": [
        {
          "internalType": "uint256",
          "name": "reportId",
          "type": "uint256"
        },
        {
          "internalType": "enum Municipality.HoleState",
          "name": "newState",
          "type": "uint8"
        }
      ],
      "name": "updateHoleState",
      "outputs": [],
      "stateMutability": "nonpayable",
      "type": "function"
    },
    {
      "inputs": [
        {
          "internalType": "uint256",
          "name": "id",
          "type": "uint256"
        },
        {
          "internalType": "string",
          "name": "location",
          "type": "string"
        },
        {
          "internalType": "address",
          "name": "reporter",
          "type": "address"
        }
      ],
      "name": "createReport",
      "outputs": [],
      "stateMutability": "nonpayable",
      "type": "function"
    }
  ],
  "bytecode": "0x608060405234801561001057600080fd5b50610d80806100206000396000f3fe608060405234801561001057600080fd5b50600436106100575760003560e01c8063185c6f841461005c5780631e4f5d8b1461007a57806340216d2014610096578063c942adf7146100c6578063e261dfd6146100fb575b600080fd5b610064610117565b604051610071919061049c565b60405180910390f35b610094600480360381019061008f919061051c565b61011d565b005b6100b060048036038101906100ab91906106a2565b6101f0565b6040516100bd919061049c565b60405180910390f35b6100e060048036038101906100db91906106eb565b61021e565b6040516100f29695949392919061084f565b60405180910390f35b610115600480360381019061011091906108e3565b61030f565b005b60005481565b6000600160008481526020019081526020016000209050600081600001540361017b576040517f08c379a00000000000000000000000000000000000000000000000000000000081526004016101729061099e565b60405180910390fd5b818160030160146101000a81548160ff021916908360028111156101a2576101a16107d8565b5b02179055504281600401819055507fa09c6409fa68b5535425f910a99a09dfc514efe1b214009edc6d7dc8b33692bf8383426040516101e3939291906109be565b60405180910390a1505050565b6002818051602081018201805184825260208301602085012081835280955050505050506000915090505481565b600160205280600052604060002060009150905080600001549080600101805461024790610a24565b80601f016020809104026020016040519081016040528092919081815260200182805461027390610a24565b80156102c05780601f10610295576101008083540402835291602001916102c0565b820191906000526020600020905b8154815290600101906020018083116102a357829003601f168201915b5050505050908060020154908060030160009054906101000a900473ffffffffffffffffffffffffffffffffffffffff16908060030160149054906101000a900460ff16908060040154905086565b60008081548092919061032190610a84565b91905055506040518060c0016040528060005481526020018381526020014281526020018273ffffffffffffffffffffffffffffffffffffffff16815260200160006002811115610375576103746107d8565b5b81526020014281525060016000805481526020019081526020016000206000820151816000015560208201518160010190816103b19190610c78565b506040820151816002015560608201518160030160006101000a81548173ffffffffffffffffffffffffffffffffffffffff021916908373ffffffffffffffffffffffffffffffffffffffff16021790555060808201518160030160146101000a81548160ff0219169083600281111561042e5761042d6107d8565b5b021790555060a082015181600401559050507fa09c6409fa68b5535425f910a99a09dfc514efe1b214009edc6d7dc8b33692bf600054600042604051610476939291906109be565b60405180910390a1505050565b6000819050919050565b61049681610483565b82525050565b60006020820190506104b1600083018461048d565b92915050565b6000604051905090565b600080fd5b600080fd5b6104d481610483565b81146104df57600080fd5b50565b6000813590506104f1816104cb565b92915050565b6003811061050457600080fd5b50565b600081359050610516816104f7565b92915050565b60008060408385031215610533576105326104c1565b5b6000610541858286016104e2565b925050602061055285828601610507565b9150509250929050565b600080fd5b600080fd5b6000601f19601f8301169050919050565b7f4e487b7100000000000000000000000000000000000000000000000000000000600052604160045260246000fd5b6105af82610566565b810181811067ffffffffffffffff821117156105ce576105cd610577565b5b80604052505050565b60006105e16104b7565b90506105ed82826105a6565b919050565b600067ffffffffffffffff82111561060d5761060c610577565b5b61061682610566565b9050602081019050919050565b82818337600083830152505050565b6000610645610640846105f2565b6105d7565b90508281526020810184848401111561066157610660610561565b5b61066c848285610623565b509392505050565b600082601f8301126106895761068861055c565b5b8135610699848260208601610632565b91505092915050565b6000602082840312156106b8576106b76104c1565b5b600082013567ffffffffffffffff8111156106d6576106d56104c6565b5b6106e284828501610674565b91505092915050565b600060208284031215610701576107006104c1565b5b600061070f848285016104e2565b91505092915050565b600081519050919050565b600082825260208201905092915050565b60005b83811015610752578082015181840152602081019050610737565b60008484015250505050565b600061076982610718565b6107738185610723565b9350610783818560208601610734565b61078c81610566565b840191505092915050565b600073ffffffffffffffffffffffffffffffffffffffff82169050919050565b60006107c282610797565b9050919050565b6107d2816107b7565b82525050565b7f4e487b7100000000000000000000000000000000000000000000000000000000600052602160045260246000fd5b60038110610818576108176107d8565b5b50565b600081905061082982610807565b919050565b60006108398261081b565b9050919050565b6108498161082e565b82525050565b600060c082019050610864600083018961048d565b8181036020830152610876818861075e565b9050610885604083018761048d565b61089260608301866107c9565b61089f6080830185610840565b6108ac60a083018461048d565b979650505050505050565b6108c0816107b7565b81146108cb57600080fd5b50565b6000813590506108dd816108b7565b92915050565b6000806000606084860312156108fc576108fb6104c1565b5b600061090a868287016104e2565b935050602084013567ffffffffffffffff81111561092b5761092a6104c6565b5b61093786828701610674565b9250506040610948868287016108ce565b9150509250925092565b7f5265706f727420646f6573206e6f742065786973740000000000000000000000600082015250565b6000610988601583610723565b915061099382610952565b602082019050919050565b600060208201905081810360008301526109b78161097b565b9050919050565b60006060820190506109d3600083018661048d565b6109e06020830185610840565b6109ed604083018461048d565b949350505050565b7f4e487b7100000000000000000000000000000000000000000000000000000000600052602260045260246000fd5b60006002820490506001821680610a3c57607f821691505b602082108103610a4f57610a4e6109f5565b5b50919050565b7f4e487b7100000000000000000000000000000000000000000000000000000000600052601160045260246000fd5b6000610a8f82610483565b91507fffffffffffffffffffffffffffffffffffffffffffffffffffffffffffffffff8203610ac157610ac0610a55565b5b600182019050919050565b60008190508160005260206000209050919050565b60006020601f8301049050919050565b600082821b905092915050565b600060088302610b2e7fffffffffffffffffffffffffffffffffffffffffffffffffffffffffffffffff82610af1565b610b388683610af1565b95508019841693508086168417925050509392505050565b6000819050919050565b6000610b75610b70610b6b84610483565b610b50565b610483565b9050919050565b6000819050919050565b610b8f83610b5a565b610ba3610b9b82610b7c565b848454610afe565b825550505050565b600090565b610bb8610bab565b610bc3818484610b86565b505050565b5b81811015610be757610bdc600082610bb0565b600181019050610bc9565b5050565b601f821115610c2c57610bfd81610acc565b610c0684610ae1565b81016020851015610c15578190505b610c29610c2185610ae1565b830182610bc8565b50505b505050565b600082821c905092915050565b6000610c4f60001984600802610c31565b1980831691505092915050565b6000610c688383610c3e565b9150826002028217905092915050565b610c8182610718565b67ffffffffffffffff811115610c9a57610c99610577565b5b610ca48254610a24565b610caf828285610beb565b600060209050601f831160018114610ce25760008415610cd0578287015190505b610cda8582610c5c565b865550610d42565b601f198416610cf086610acc565b60005b82811015610d1857848901518255600182019150602085019450602081019050610cf3565b86831015610d355784890151610d31601f891682610c3e565b8355505b6001600288020188555050505b50505050505056fea26469706673582212206f8fd3c41ffe92e3d0865783bb5f86be27d47bcadbd8d87f84fc8ff85859b54a64736f6c63430008130033",
  "immutableReferences": {},
  "source": "// SPDX-License-Identifier: MIT\npragma solidity ^0.8.19;\n\ncontract Municipality {\n    enum HoleState { Pending, Fixing, Fixed }\n\n    struct Report {\n        uint256 id;\n        string location;\n        uint256 timestamp;\n        address reporter;\n        HoleState state;\n        uint256 stateTimestamp; // Timestamp when the state was last updated\n    }\n\n    uint256 public reportCount;\n    mapping(uint256 => Report) public reports;\n    mapping(string => uint256) public locationReportCount;\n\n    event HoleStateChanged(uint256 id, HoleState state, uint256 timestamp);\n\n    // Function to update the hole's state (municipality's action)\n    function updateHoleState(uint256 reportId, HoleState newState) public {\n        Report storage report = reports[reportId];\n        \n        // Ensure the report exists\n        require(report.id != 0, \"Report does not exist\");\n        \n        // Set the new state and timestamp\n        report.state = newState;\n        report.stateTimestamp = block.timestamp;\n        \n        emit HoleStateChanged(reportId, newState, block.timestamp);\n    }\n\n    // Function to create or manage a report (initially pending)\n    function createReport(uint256 id, string memory location, address reporter) public {\n        reportCount++;\n        reports[reportCount] = Report(reportCount, location, block.timestamp, reporter, HoleState.Pending, block.timestamp);\n        emit HoleStateChanged(reportCount, HoleState.Pending, block.timestamp);\n    }\n}\n",
  "sourcePath": "/home/omar/FlutterProjects/Blockchain_project/backend/contracts/municipality.sol",
  "compiler": {
    "name": "solc",
    "version": "0.8.19+commit.7dd6d404.Emscripten.clang"
  },
  "schemaVersion": "3.4.16",
  "updatedAt": "2024-12-06T22:52:46.773Z",
  "networkType": "ethereum",
  "devdoc": {
    "kind": "dev",
    "methods": {},
    "version": 1
  },
  "userdoc": {
    "kind": "user",
    "methods": {},
    "version": 1
  }
}