{
  "contractName": "Municipality",
  "abi": [
    {
      "anonymous": false,
      "inputs": [
        {
          "indexed": false,
          "internalType": "uint256",
          "name": "id",
          "type": "uint256"
        },
        {
          "indexed": false,
          "internalType": "string",
          "name": "location",
          "type": "string"
        },
        {
          "indexed": false,
          "internalType": "address",
          "name": "reporter",
          "type": "address"
        }
      ],
      "name": "HoleReported",
      "type": "event"
    },
    {
      "anonymous": false,
      "inputs": [
        {
          "indexed": false,
          "internalType": "uint256",
          "name": "id",
          "type": "uint256"
        },
        {
          "indexed": false,
          "internalType": "enum Municipality.HoleState",
          "name": "state",
          "type": "uint8"
        },
        {
          "indexed": false,
          "internalType": "uint256",
          "name": "timestamp",
          "type": "uint256"
        }
      ],
      "name": "HoleStateChanged",
      "type": "event"
    },
    {
      "inputs": [
        {
          "internalType": "string",
          "name": "",
          "type": "string"
        }
      ],
      "name": "locationReportCount",
      "outputs": [
        {
          "internalType": "uint256",
          "name": "",
          "type": "uint256"
        }
      ],
      "stateMutability": "view",
      "type": "function",
      "constant": true
    },
    {
      "inputs": [],
      "name": "reportCount",
      "outputs": [
        {
          "internalType": "uint256",
          "name": "",
          "type": "uint256"
        }
      ],
      "stateMutability": "view",
      "type": "function",
      "constant": true
    },
    {
      "inputs": [
        {
          "internalType": "uint256",
          "name": "",
          "type": "uint256"
        }
      ],
      "name": "reportIds",
      "outputs": [
        {
          "internalType": "uint256",
          "name": "",
          "type": "uint256"
        }
      ],
      "stateMutability": "view",
      "type": "function",
      "constant": true
    },
    {
      "inputs": [
        {
          "internalType": "uint256",
          "name": "",
          "type": "uint256"
        }
      ],
      "name": "reports",
      "outputs": [
        {
          "internalType": "uint256",
          "name": "id",
          "type": "uint256"
        },
        {
          "internalType": "string",
          "name": "location",
          "type": "string"
        },
        {
          "internalType": "uint256",
          "name": "timestamp",
          "type": "uint256"
        },
        {
          "internalType": "address",
          "name": "reporter",
          "type": "address"
        },
        {
          "internalType": "enum Municipality.HoleState",
          "name": "state",
          "type": "uint8"
        },
        {
          "internalType": "uint256",
          "name": "stateTimestamp",
          "type": "uint256"
        }
      ],
      "stateMutability": "view",
      "type": "function",
      "constant": true
    },
    {
      "inputs": [
        {
          "internalType": "uint256",
          "name": "reportId",
          "type": "uint256"
        },
        {
          "internalType": "enum Municipality.HoleState",
          "name": "newState",
          "type": "uint8"
        }
      ],
      "name": "updateHoleState",
      "outputs": [],
      "stateMutability": "nonpayable",
      "type": "function"
    },
    {
      "inputs": [
        {
          "internalType": "uint256",
          "name": "id",
          "type": "uint256"
        },
        {
          "internalType": "string",
          "name": "location",
          "type": "string"
        },
        {
          "internalType": "address",
          "name": "reporter",
          "type": "address"
        }
      ],
      "name": "createReport",
      "outputs": [],
      "stateMutability": "nonpayable",
      "type": "function"
    },
    {
      "inputs": [],
      "name": "getAllReports",
      "outputs": [
        {
          "internalType": "uint256[]",
          "name": "",
          "type": "uint256[]"
        }
      ],
      "stateMutability": "view",
      "type": "function",
      "constant": true
    },
    {
      "inputs": [],
      "name": "getAllReportIds",
      "outputs": [
        {
          "internalType": "uint256[]",
          "name": "",
          "type": "uint256[]"
        }
      ],
      "stateMutability": "view",
      "type": "function",
      "constant": true
    }
  ],
  "bytecode": "0x608060405234801561001057600080fd5b506111c9806100206000396000f3fe608060405234801561001057600080fd5b50600436106100885760003560e01c806387cc66de1161005b57806387cc66de14610115578063c942adf714610145578063e261dfd61461017a578063f3d3ddfa1461019657610088565b8063131eb28e1461008d578063185c6f84146100ab5780631e4f5d8b146100c957806340216d20146100e5575b600080fd5b6100956101b4565b6040516100a291906107a7565b60405180910390f35b6100b361020c565b6040516100c091906107d8565b60405180910390f35b6100e360048036038101906100de9190610858565b610212565b005b6100ff60048036038101906100fa91906109de565b6102e5565b60405161010c91906107d8565b60405180910390f35b61012f600480360381019061012a9190610a27565b610313565b60405161013c91906107d8565b60405180910390f35b61015f600480360381019061015a9190610a27565b610337565b60405161017196959493929190610b8b565b60405180910390f35b610194600480360381019061018f9190610c1f565b610428565b005b61019e610637565b6040516101ab91906107a7565b60405180910390f35b6060600080548060200260200160405190810160405280929190818152602001828054801561020257602002820191906000526020600020905b8154815260200190600101908083116101ee575b5050505050905090565b60015481565b60006002600084815260200190815260200160002090506000816000015403610270576040517f08c379a000000000000000000000000000000000000000000000000000000000815260040161026790610cda565b60405180910390fd5b818160030160146101000a81548160ff0219169083600281111561029757610296610b14565b5b02179055504281600401819055507fa09c6409fa68b5535425f910a99a09dfc514efe1b214009edc6d7dc8b33692bf8383426040516102d893929190610cfa565b60405180910390a1505050565b6003818051602081018201805184825260208301602085012081835280955050505050506000915090505481565b6000818154811061032357600080fd5b906000526020600020016000915090505481565b600260205280600052604060002060009150905080600001549080600101805461036090610d60565b80601f016020809104026020016040519081016040528092919081815260200182805461038c90610d60565b80156103d95780601f106103ae576101008083540402835291602001916103d9565b820191906000526020600020905b8154815290600101906020018083116103bc57829003601f168201915b5050505050908060020154908060030160009054906101000a900473ffffffffffffffffffffffffffffffffffffffff16908060030160149054906101000a900460ff16908060040154905086565b6001600081548092919061043b90610dc0565b91905055506040518060c0016040528060015481526020018381526020014281526020018273ffffffffffffffffffffffffffffffffffffffff1681526020016000600281111561048f5761048e610b14565b5b8152602001428152506002600060015481526020019081526020016000206000820151816000015560208201518160010190816104cc9190610fb4565b506040820151816002015560608201518160030160006101000a81548173ffffffffffffffffffffffffffffffffffffffff021916908373ffffffffffffffffffffffffffffffffffffffff16021790555060808201518160030160146101000a81548160ff0219169083600281111561054957610548610b14565b5b021790555060a0820151816004015590505060015460026000600154815260200190815260200160002060000154146105b7576040517f08c379a00000000000000000000000000000000000000000000000000000000081526004016105ae906110d2565b60405180910390fd5b7fef68dfa45b32e7a9ba84a4219914430fdb97257b2ca6432f4b68500597c611d260015483836040516105ec939291906110f2565b60405180910390a17fa09c6409fa68b5535425f910a99a09dfc514efe1b214009edc6d7dc8b33692bf60015460004260405161062a93929190610cfa565b60405180910390a1505050565b6060600060015467ffffffffffffffff811115610657576106566108b3565b5b6040519080825280602002602001820160405280156106855781602001602082028036833780820191505090505b5090506000600190505b60015481116106d75780826001836106a79190611130565b815181106106b8576106b7611164565b5b60200260200101818152505080806106cf90610dc0565b91505061068f565b508091505090565b600081519050919050565b600082825260208201905092915050565b6000819050602082019050919050565b6000819050919050565b61071e8161070b565b82525050565b60006107308383610715565b60208301905092915050565b6000602082019050919050565b6000610754826106df565b61075e81856106ea565b9350610769836106fb565b8060005b8381101561079a5781516107818882610724565b975061078c8361073c565b92505060018101905061076d565b5085935050505092915050565b600060208201905081810360008301526107c18184610749565b905092915050565b6107d28161070b565b82525050565b60006020820190506107ed60008301846107c9565b92915050565b6000604051905090565b600080fd5b600080fd5b6108108161070b565b811461081b57600080fd5b50565b60008135905061082d81610807565b92915050565b6003811061084057600080fd5b50565b60008135905061085281610833565b92915050565b6000806040838503121561086f5761086e6107fd565b5b600061087d8582860161081e565b925050602061088e85828601610843565b9150509250929050565b600080fd5b600080fd5b6000601f19601f8301169050919050565b7f4e487b7100000000000000000000000000000000000000000000000000000000600052604160045260246000fd5b6108eb826108a2565b810181811067ffffffffffffffff8211171561090a576109096108b3565b5b80604052505050565b600061091d6107f3565b905061092982826108e2565b919050565b600067ffffffffffffffff821115610949576109486108b3565b5b610952826108a2565b9050602081019050919050565b82818337600083830152505050565b600061098161097c8461092e565b610913565b90508281526020810184848401111561099d5761099c61089d565b5b6109a884828561095f565b509392505050565b600082601f8301126109c5576109c4610898565b5b81356109d584826020860161096e565b91505092915050565b6000602082840312156109f4576109f36107fd565b5b600082013567ffffffffffffffff811115610a1257610a11610802565b5b610a1e848285016109b0565b91505092915050565b600060208284031215610a3d57610a3c6107fd565b5b6000610a4b8482850161081e565b91505092915050565b600081519050919050565b600082825260208201905092915050565b60005b83811015610a8e578082015181840152602081019050610a73565b60008484015250505050565b6000610aa582610a54565b610aaf8185610a5f565b9350610abf818560208601610a70565b610ac8816108a2565b840191505092915050565b600073ffffffffffffffffffffffffffffffffffffffff82169050919050565b6000610afe82610ad3565b9050919050565b610b0e81610af3565b82525050565b7f4e487b7100000000000000000000000000000000000000000000000000000000600052602160045260246000fd5b60038110610b5457610b53610b14565b5b50565b6000819050610b6582610b43565b919050565b6000610b7582610b57565b9050919050565b610b8581610b6a565b82525050565b600060c082019050610ba060008301896107c9565b8181036020830152610bb28188610a9a565b9050610bc160408301876107c9565b610bce6060830186610b05565b610bdb6080830185610b7c565b610be860a08301846107c9565b979650505050505050565b610bfc81610af3565b8114610c0757600080fd5b50565b600081359050610c1981610bf3565b92915050565b600080600060608486031215610c3857610c376107fd565b5b6000610c468682870161081e565b935050602084013567ffffffffffffffff811115610c6757610c66610802565b5b610c73868287016109b0565b9250506040610c8486828701610c0a565b9150509250925092565b7f5265706f727420646f6573206e6f742065786973740000000000000000000000600082015250565b6000610cc4601583610a5f565b9150610ccf82610c8e565b602082019050919050565b60006020820190508181036000830152610cf381610cb7565b9050919050565b6000606082019050610d0f60008301866107c9565b610d1c6020830185610b7c565b610d2960408301846107c9565b949350505050565b7f4e487b7100000000000000000000000000000000000000000000000000000000600052602260045260246000fd5b60006002820490506001821680610d7857607f821691505b602082108103610d8b57610d8a610d31565b5b50919050565b7f4e487b7100000000000000000000000000000000000000000000000000000000600052601160045260246000fd5b6000610dcb8261070b565b91507fffffffffffffffffffffffffffffffffffffffffffffffffffffffffffffffff8203610dfd57610dfc610d91565b5b600182019050919050565b60008190508160005260206000209050919050565b60006020601f8301049050919050565b600082821b905092915050565b600060088302610e6a7fffffffffffffffffffffffffffffffffffffffffffffffffffffffffffffffff82610e2d565b610e748683610e2d565b95508019841693508086168417925050509392505050565b6000819050919050565b6000610eb1610eac610ea78461070b565b610e8c565b61070b565b9050919050565b6000819050919050565b610ecb83610e96565b610edf610ed782610eb8565b848454610e3a565b825550505050565b600090565b610ef4610ee7565b610eff818484610ec2565b505050565b5b81811015610f2357610f18600082610eec565b600181019050610f05565b5050565b601f821115610f6857610f3981610e08565b610f4284610e1d565b81016020851015610f51578190505b610f65610f5d85610e1d565b830182610f04565b50505b505050565b600082821c905092915050565b6000610f8b60001984600802610f6d565b1980831691505092915050565b6000610fa48383610f7a565b9150826002028217905092915050565b610fbd82610a54565b67ffffffffffffffff811115610fd657610fd56108b3565b5b610fe08254610d60565b610feb828285610f27565b600060209050601f83116001811461101e576000841561100c578287015190505b6110168582610f98565b86555061107e565b601f19841661102c86610e08565b60005b828110156110545784890151825560018201915060208501945060208101905061102f565b86831015611071578489015161106d601f891682610f7a565b8355505b6001600288020188555050505b505050505050565b7f5265706f727420776173206e6f742061646465642070726f7065726c79000000600082015250565b60006110bc601d83610a5f565b91506110c782611086565b602082019050919050565b600060208201905081810360008301526110eb816110af565b9050919050565b600060608201905061110760008301866107c9565b81810360208301526111198185610a9a565b90506111286040830184610b05565b949350505050565b600061113b8261070b565b91506111468361070b565b925082820390508181111561115e5761115d610d91565b5b92915050565b7f4e487b7100000000000000000000000000000000000000000000000000000000600052603260045260246000fdfea264697066735822122018a5a539d5cc06d057f5db273df2020f4ec55c49f2870318378ba463d9df811764736f6c63430008130033",
  "immutableReferences": {},
  "source": "// SPDX-License-Identifier: MIT\r\npragma solidity ^0.8.19;\r\n\r\ncontract Municipality {\r\n    enum HoleState { Pending, Fixing, Fixed }\r\n\r\n    uint256[] public reportIds;\r\n    \r\n    struct Report {\r\n        uint256 id;\r\n        string location;\r\n        uint256 timestamp;\r\n        address reporter;\r\n        HoleState state;\r\n        uint256 stateTimestamp; // Timestamp when the state was last updated\r\n    }\r\n\r\n    uint256 public reportCount;\r\n    mapping(uint256 => Report) public reports;\r\n    mapping(string => uint256) public locationReportCount;\r\n\r\n    // Event emitted when a hole's state changes\r\n    event HoleStateChanged(uint256 id, HoleState state, uint256 timestamp);\r\n\r\n    // Event emitted when a new hole is reported\r\n    event HoleReported(uint256 id, string location, address reporter); // <-- Ajout ici\r\n\r\n    // Function to update the hole's state (municipality's action)\r\n    function updateHoleState(uint256 reportId, HoleState newState) public {\r\n        Report storage report = reports[reportId];\r\n        \r\n        // Ensure the report exists\r\n        require(report.id != 0, \"Report does not exist\");\r\n        \r\n        // Set the new state and timestamp\r\n        report.state = newState;\r\n        report.stateTimestamp = block.timestamp;\r\n        \r\n        emit HoleStateChanged(reportId, newState, block.timestamp);\r\n    }\r\n\r\n    // Function to create or manage a report (initially pending)\r\n    function createReport(uint256 id, string memory location, address reporter) public {\r\n        reportCount++;\r\n        reports[reportCount] = Report(reportCount, location, block.timestamp, reporter, HoleState.Pending, block.timestamp);\r\n        \r\n        // Debugging: Verify if report is added correctly\r\n        require(reports[reportCount].id == reportCount, \"Report was not added properly\");\r\n\r\n        // Emit both events: HoleReported and HoleStateChanged\r\n        emit HoleReported(reportCount, location, reporter); // <-- Ajout ici\r\n        emit HoleStateChanged(reportCount, HoleState.Pending, block.timestamp);\r\n    }\r\n\r\n    // Function to get all reports (returns an array of report IDs)\r\n    function getAllReports() public view returns (uint256[] memory) {\r\n        uint256[] memory reportIds = new uint256[](reportCount);\r\n        for (uint256 i = 1; i <= reportCount; i++) {\r\n            reportIds[i - 1] = i;\r\n        }\r\n        return reportIds;\r\n    }\r\n    function getAllReportIds() public view returns (uint256[] memory) {\r\n        return reportIds;  // Retourner tous les IDs de rapports\r\n    }\r\n}\r\n",
  "sourcePath": "E:\\Bureau\\Blockchain\\Blockchain_project\\backend\\contracts\\municipality.sol",
  "compiler": {
    "name": "solc",
    "version": "0.8.19+commit.7dd6d404.Emscripten.clang"
  },
  "schemaVersion": "3.4.16",
  "updatedAt": "2024-12-08T13:54:51.479Z",
  "networkType": "ethereum",
  "devdoc": {
    "kind": "dev",
    "methods": {},
    "version": 1
  },
  "userdoc": {
    "kind": "user",
    "methods": {},
    "version": 1
  }
}